S00C0000736E6966662E733337D2
S3150800000000F40020F96F0008A5660008A966000834
S31508000010A70B0000000000000000FFFF54000008C6
S3150800002004080300000000000000000000000000B3
S3150800003000000000000000000000000000000000B2
S31508000040000000000000000000000000040100009D
S315080000500000000000F40020F96F0008A5660008FB
S31508000060A9660008A70A0A0100010008040803ACEB
S3150800007030670401000000000000000000000000D6
S315080000800000000000000000000000000000000062
S31508000090000000000000000000000000FFFFFFFF56
S315080000A0FFFFFFFFFFFFFFFF00E00708000000005B
S315080000B000000000FFFFFFFFFFFFFFFFFF0000003B
S315080000C00000000000000000000000000000000022
S315080000D000000000F0FF002000000000F0FF0020F4
S315080000E0F0FF002000F400202E7800083071000888
S315080000F0A0EA0020FC1000200000080800000120EB
S3150800010000F40020F96F0008717000087570000887
S31508000110797000087D7000088170000800000000F2
S315080001200000000000000000000000008D700008BC
S3150800013091700008000000009D700008EB0C000894
S31508000140A1700008AD700008B1700008BD70000805
S31508000150C1700008CD700008D9700008E570000865
S31508000160E9700008ED700008F1700008F5700008E5
S315080001700171000805710008097100080D71000871
S31508000180117100081D710008297100082D710008F9
S315080001900A0A42EA01225040C0F30311484080EAA5
S315080001A0003041010206C9B2D20E41EA0221484096
S315080001B080B2704702461088030448BF4840410091
S315080001C01180704738B5074C62212046FFF7F2FFC9
S315080001D0054641F20B01A01CFFF7ECFF684032BD53
S315080001E00000000054F50020010007D4012200F0A9
S315080001F01F01304B8A40400943F820207047000011
S3150800020070B52D4C2D4D607829684A0726D50328E8
S3150800021024D2A18804EB400291810121A27801FA37
S3150800022000F01043A070264A2078002811D0002339
S3150800023020FA03F6F60703D45B1C032BF8D30DE06C
S31508000240994063704140217004EB4300818A116034
S3150800025004E0106000F090F8032161704FF6FF701B
S315080002602860BFF35F8F70BD10B513480021017079
S31508000270032205214270018100231149C37083704E
S315080002800B604B604FF400448C601022CA60001D5E
S31508000290486101228A610320C86004210748016475
S315080002A04FF6FF7202600B20FFF79EFFBDE8104075
S315080002B000F0A2B800E100E0F0FA002010A8004023
S315080002C004E0004000F0F9BB2348012181604EF6A6
S315080002D0BE224260016070472049012008607047CD
S315080002E0A52805D11C484DF6AD6141600222026081
S315080002F070471948016811F0010018BF01207047BE
S3150800030080B5174910200860BFF34F8FBFF36F8F72
S31508000310144A15491078154A60B1032807BF00200A
S3150800032010600123136040F651000860002000F0B9
S315080003303FFE06E0022313604FF40060086000F0F9
S315080003407FFB0B480721016001220264102009493E
S315080003500860002002BD0000006000400860004000
S3150800036080E100E0D0FF00200C600040080000405B
S3150800037014A0004000E100E070477047DFF8E83459
S3150800038033F81000024022FA01F07047F0B50FF278
S315080003909854DFF8D83434F81050DFF8CC449D6010
S315080003A0114034F8105095432943D96002261E603F
S315080003B000271F6024F8101058680028FCD1F0BDEB
S315080003C0DFF8AC34DFF8AC141878DFF8AC2408B1E1
S315080003D050780FE0125612F1090F02DA30230B603B
S315080003E07047C86D38B1C86D40F24A32B2FBF0F0BA
S315080003F080B2C01E08607047E0B5DFF88004018847
S315080004000A2300F068F8BDF806104FF6FF720D20B3
S31508000410FFF7BCFF07BDF8B5B0F5004F0546DFF896
S3150800042058641AD1DFF858442188022300F053F89B
S31508000430BDF80000000AFF2801D0010000D11820ED
S315080004407070BDF800000006C00E10281CBF001D05
S3150800045000F098F9BDF80050ED43DFF814446078D1
S3150800046010B10021617006E0B189A8B24140CA07FF
S3150800047044BF01206070A8B2C0F34007DFF8040447
S31508000480B58105F00106016841F400410160314675
S315080004900FF2B94010F8111009074FF44052090C31
S315080004A00220FFF773FF304600F0C4FD2D064022F8
S315080004B0B9010B20AD0EFFF769FF05F001053D43B5
S315080004C02570FFF77DFF607818B1FFF795FF0020CC
S315080004D060700020F2BD7F22684600F02DBE01F054
S315080004E038B92DE9F84FDFF8A453287886B0A0F17B
S315080004F00B0104900391CAB204230E21684601F049
S31508000500F4F99DF90000DFF888130A788DF80800D9
S31508000510012A9DF801008DF807009DF902008DF863
S3150800052006009DF803008DF8050004D16878441E7E
S31508000530A441E40F00E0012401F00FF980469DF97B
S315080005400200039EDFF8409308F10A07A8F10A0B98
S31508000550B842B6BF83454FF0010A4FF0000A0120A2
S3150800056000FA06F69DF80100010603D4B9F8022040
S31508000570324201D04FF0010A01F0FCF99DF8030060
S31508000580010609D4B9F80420324205D19DF90000C4
S31508000590B842B8BF834502DB4FF0010B01E04FF0CC
S315080005A0000B4AEA04005BEA000000F09F80B948A5
S315080005B0B94F0168B948490801F001018DF80410DE
S315080005C0016801F4E06105914FF4E060B449086000
S315080005D0002001F0BBFD00F0EFFB9CB1687848B144
S315080005E000F08FF84908490001600120107000F0FA
S315080005F0D0FC07E0386840F400503860396821F4C8
S3150800060080513960A248017801290FD1002C1ABF00
S315080006106878002801F0FFFE00F073F841F0010148
S31508000620016000201070642000F0B3FC2CB16878DB
S3150800063018B9049880B201F0B2FF687838B1396801
S3150800064021F480513960386840F400503860F64328
S31508000650BAF1000F0AD002F091F8B9F802108DF835
S31508000660010031408DF80280A9F80210BBF1000F95
S315080006700AD002F030F9B9F804108DF803000E40DC
S315080006808DF80080A9F804609DF900009DF908100E
S31508000690884202BF9DF801009DF8071088420BD1D9
S315080006A09DF902009DF90610884202BF9DF80300D5
S315080006B09DF80510884206D0039904236A46C9B2F4
S315080006C00E2001F026F905987449086000F05CFDD3
S315080006D09DF8040001F03AFD02F021FA687828B185
S315080006E048F260713960642000F053FC9DF80100FF
S315080006F001F0AAFF9DF8030002F0E8F807B0BDE88C
S31508000700F08F6448624A01687047E8E670B50546A6
S31508000710A0F10B0601F086FC0446A5F10B00102893
S3150800072001D38A2070BD5F4881680A0702D4006831
S31508000730C10701D58C2070BD54485B4905700A680D
S315080007400C2A0ED05EA0594BB6B230F8262093F983
S3150800075000008218CA61FFF7C4FE012C08BF01F029
S3150800076003FC002070BD10B50446FFF7B8FE20460E
S31508000770BDE81040CAE74548007870473E4890F9FA
S31508000780000070472DE9F8410646202516F12B0F83
S3150800079085B049DB464C21881423FFF79CFEBDF83B
S315080007A010004FF6FF71884203D0400448BF012469
S315080007B007D43F2200211020FFF7E0FD002480F037
S315080007C0200506F12B022F2A2B483A491AD2132262
S315080007D04BA300E0521E5FFA82F813F91870BE4266
S315080007E0F8DB03EB4802032756780E60002613F859
S315080007F01810017000218846C4B1BDF810104FF6D4
S31508000800BF7229E0092E0FDA825D0A60067014238A
S3150800081029480188FFF75FFE4FF4C0514FF48076F0
S315080008204FF080082827E7E78B201AE04FF460523C
S3150800083000F044F84FF4E062314600F03FF88022B9
S31508000840414600F03BF8791988B24028A8BF3F21F5
S3150800085081F020013F2289B200F030F8FFF7B0FDA1
S31508000860002006B0BDE8F081B0FC0020E81000408A
S31508000870DEFF002064100040A0F40020F476000893
S31508000880FE7600081C1000400EFB002071F50020C3
S3150800089062F5002080200040D010004000E100E012
S315080008A080E100E060200040AC100040DDFF002041
S315080008B0F0760008C0100040F27600080B2065E5C7
S315080008C0AA2129005523290000252800AA26270041
S315080008D055282700002A2600AA2B2600552D250074
S315080008E0002F2400AA3024005532230000342200A9
S315080008F0AA3522005537210000392000AA3A2000DF
S31508000900D500E601EC02EF03F204F405F506F70755
S31508000910F808F909FA0AFB0BFC0DFD0FFE11FF1387
S3150800092000160119021C031F1000110020003000D8
S315080009304000410050006000700080009000A00058
S31508000940B000C000D000E000F00000000000010385
S315080009502DE9F041DFF8C4640546F0780328D4BFD2
S31508000960302760274FF4F070B0FBF7F41E2D24B241
S3150800097001DB281B04D5A8B2BDE8F04100F009BB8D
S3150800098002F008F900F071F970700722DFF8900498
S31508000990002102602D1B41602DB281607D43DFF886
S315080009A08424DFF87474ED1C4FF00071AD081160F3
S315080009B06D1E4560DFF8705400F00FF83C6800F0D3
S315080009C059F93C602E6002F0EBF8002080F310889D
S315080009D04046BDE8F04102F0EBB82E6828684008AA
S315080009E04000286002F0DCB838B50446DFF82C046D
S315080009F0C1780329D4BF302560254FF4F070B0FBC9
S31508000A00F5F0241A1E2C04DAAB210FF27C4002F012
S31508000A10D5F8DFF80C0407210160002242608260E5
S31508000A206C43DFF80024E41C4FF00071A408116041
S31508000A30641E446031BDDFF8E42301215170D3E719
S31508000A402DE9F041DFF8E463DFF8E473002535604B
S31508000A503D604FF4A0427A6041F29A084046FFF79B
S31508000A6077FF706844F69041081A00B24FF448724E
S31508000A7090FBF2F001B20829A8BF072004DA11F1A9
S31508000A80080FB8BF6FF0070000B238600824404668
S31508000A90FFF75EFF4046FFF75BFF70684519641E67
S31508000AA0F8D12D1DED0808BF0125DFF88803B0FB36
S31508000AB0F5F080B27860BDE8F08138B5DFF8785394
S31508000AC001216FF00F04A9602C608020FFF740FF1A
S31508000AD0E868B0F5807F02D2641C102CF4DB31BDC7
S31508000AE070B5DFF85803DFF84053016841F001019B
S31508000AF001600122426002F04DF82E680446FFF7B5
S31508000B006DFFC549512008602E6002F049F820465D
S31508000B10BDE8704002F04CB810B5C04C01202070FA
S31508000B2000212171C648816901F00301032907D113
S31508000B300021A170042000F061F80121217110BD87
S31508000B400F220260022181610120E0706420BDE865
S31508000B50104070E72DE9F041BA4CB94EA188AF4F65
S31508000B604FF6FF78414540F2DC551CD1B64801885E
S31508000B7002237F22201D00F0DFFAA088404504BF2B
S31508000B800221A180B069810703D4B06940F0020050
S31508000B90B0610120B8702846A1883160FFF74BFF85
S31508000BA02846BDE8F081B0698207EED5B8780028F6
S31508000BB0F6D1B268B06812F0010204D10F290AD240
S31508000BC0491CA18007E0830705D5207818B10229BA
S31508000BD0C4BF481EA080A08822700228BCBF02217C
S31508000BE0A1803068A1888842D3D1B06900F003009B
S31508000BF0032818BFFFF774FF0020D2E72DE9F04756
S31508000C00924981460878002468B9C878072818BF29
S31508000C1009280DD0032818BF112809D013281CBF8E
S31508000C2015280B2804D08A48016841F480710160B0
S31508000C3001F0B0FF00F019F84846FFF78BFF08B936
S31508000C4001240CE0784D744FFFF7C7FED7F800A0D3
S31508000C5000F010F8C7F800A02E6001F0A1FF00F020
S31508000C600CF9002CE4D0BDE8F0878046012080F31B
S31508000C7010887047386820F04000386002F0A8B83D
S31508000C800220BBE710B56648664B0021416000228A
S31508000C908260016821F00201016060494A704FF0E4
S31508000CA000721A60887808B100228A70C87801280C
S31508000CB015D16848684B012202601C68E20702D514
S31508000CC00320C87010BD0222CA70016C634B41F044
S31508000CD001010164042062490860186010BDC878E3
S31508000CE0042804BF0522CA7010BD4C49487800285C
S31508000CF018BFFFF7C7BF00F03BBF2DE9F843474DC4
S31508000D00287918B356E001F045FF0446012080F320
S31508000D101088E978032913D0434EDFF8FC8000F0E9
S31508000D20A5F8D8F80090D8F8000020F04000C8F8D8
S31508000D30000002F04DF8C8F80090376001F030FF67
S31508000D40002080F31088204601F032FFE878032857
S31508000D50D9D13C4E3A4CB08820604FF6FF7771885F
S31508000D60B9420CD13F48018802237F22B01C00F00B
S31508000D70E3F97088B84202D16421718001E0708875
S31508000D8078B1708838494A6D42F001024A650A68A6
S31508000D90A368DE07FBD50B689B1AC3F313038342CC
S31508000DA0F6D3FFF79DFE0420E8704FF4C870BDE83F
S31508000DB0F24340E6BDE8F1832DE9F843174D28785C
S31508000DC008B12879E0B10021297022E001F0E2FE9D
S31508000DD0FFF74BFFE978052910D0134E0E4C00F0AB
S31508000DE045F8D4F80090206820F04000206001F013
S31508000DF0EFFFC4F80090376001F0D2FE00F03DF82E
S31508000E00E8780528E2D10021A970FFF7F7FE00204F
S31508000E102870BDE8F183000000800040E8FF00204C
S31508000E2010E000E004ED00E094ED00E01040004022
S31508000E300C0000400060E316084000401C400040DB
S31508000E40044000406AF50020007700089607080865
S31508000E503840004018A000400C40004000E100E087
S31508000E6080E200E0047700083820004037683068E0
S31508000E7040084000306001F093BE002080F31088DF
S31508000E80404601F095BE0000636C6F636B732E637A
S31508000E9000000000002010B501F047FE40F68C2146
S31508000EA088425B4C04DA206840F00800206010BDD8
S31508000EB0216821F00801216010BD38B5554D2988F3
S31508000EC0044600F061F89DF800109DF80100FF291E
S31508000ED002BFFF2804200021220018BF801CC2B2CE
S31508000EE0082A4D4A136823F46073A8BF0720C0B2C6
S31508000EF043EAC013136008291068A8BF0721C00871
S31508000F0041EAC001116045490C7031BD80B54448BD
S31508000F10018800F039F8BDF800004FF6FF718842E5
S31508000F2004D14FF4E162ADF8002004E00A2190FBF9
S31508000F30F1F1ADF80010394A107810B33548018838
S31508000F4002237F220DF1020000F0F6F89DF8030057
S31508000F50BDF80030FF2808BF0420811CC9B2082943
S31508000F60A8BF0721C1F12F0202EBD272C0F12F00F0
S31508000F70521000FB0320C1F12F01B0FBF1F0ADF8D0
S31508000F800000BDF8000002BD02237F22684600F07B
S31508000F90D3B824490A68032809D34B6D43F00103E3
S31508000FA04B650B689B1AC3F313038342F9D3704747
S31508000FB010B5040004D110BD4FF47A70FFF7E9FFAD
S31508000FC02046441E80B20028F6D110BD20B1012863
S31508000FD009D0032818D019E0134800291ABF172288
S31508000FE00260016010E039B1104800EB5100B0FB17
S31508000FF0F1F0B0F1011F01D3202070470C4900F031
S3150800100001024A60400808600020704721207047A6
S3150800101000BC0040F676000818000040E6FF0020F5
S31508001020F876000838200040100004E000366E010B
S3150800103068C80040F8B5054688B00020FFF73DFFB0
S31508001040284801880A237F22684600F075F8BDF80B
S3150800105002004FF6FF76B04240F005804FF48371E8
S3150800106023A001F0ABFD002427A70EE0022C08BF41
S315080010704EF23F023DF81410385DFFF787F9641CFD
S31508001080052C05D2002C3246F0D14FF47C42F1E70C
S31508001090012D03D114237F22134802E014237F2253
S315080010A0124801881AA703A800F046F80024324619
S315080010B002E0082C08BF002203A830F81410385D97
S315080010C0FFF764F9641C0A2C05D2012C3246F0D1CC
S315080010D04FF6C072F0E7012D04BF0120FFF7EDFEC1
S315080010E009B0F0BDF4760008F2760008F07600083C
S315080010F0616E616C6F6775652D63656C6C2D6269D1
S3150800110061732E630000000000100C0D0E00000035
S31508001110010203040708090A0B0F000038B5154633
S315080011207F2A08BF0025154C21431A4605FB0311E3
S31508001130BDE8384001F050BE70B51E00044615469D
S315080011401BD04BF23462914211D1092E28BF0826D2
S3150800115033467F2240F61201FFF7E0FF4FEA060208
S3150800116007A1204601F086FE38B940F2A27133463F
S315080011702A462046BDE87040D0E770BD0000080842
S31508001180FFFFFFFFFFFFFFFF10B5DFF82C4610201B
S31508001190206301F0FFFCDFF824160A6842F001021A
S315080011A00A6001F005FDDFF818066060206001227C
S315080011B061688931616022638A30E060A06002213B
S315080011C0E068DFF800268930E06021634FF6FF709B
S315080011D0106010BDDFF8F00545F26401C1601E22FB
S315080011E0426250210162C822C261826545F69001B9
S315080011F0F022C2654166882282660621C16644F2EB
S31508001200066202604FF6FF73DFF8C0154360087880
S3150800121038B1DFF8BC0548F2607101604FF4C1527D
S315080012204260DFF8B005DFF8B025016841F0040137
S315080012300160002050707047DFF88805016811F0DA
S31508001240190F03D10021022001F027BE70472DE9AE
S31508001250FE4F0446DFF88415DFF88455DFF884A5C9
S31508001260012001F07BFE00F0BBF8032001F015FE1B
S315080012708A22DFF84C1562438E18711C4B780F785A
S31508001280DFF864150A788AF8002007EB0327BFB24F
S315080012900AEB04080020B90688F8020001D5686E32
S315080012A0010640F19B8007F0070BBBF1030F4FF0D7
S315080012B0000969D107F4406107F44040B1F5806F31
S315080012C01CBFB0F5804F00285ED00422B1F5006F30
S315080012D008BF082203D0B1F5406F08BF0E22790671
S315080012E05CBF921CD2B2B0F5004F03D1931CDBB29F
S315080012F0009303E002F10801C9B200910099491C64
S3150800130001EBD171C905090E01912100019B14BF9A
S3150800131069682968994237D3B118B0F5404F05D1A5
S31508001320084602F050F88146B8B92DE04978B05C15
S3150800133000EB012080B202F00DF9FF2808D0DFF893
S31508001340AC140A6832F8100010F4E66F03D11BE0FB
S31508001350BBF1030F18D14FF00109380714D40198CF
S31508001360210014BF69682968421C914206D2E968BF
S31508001370002C14BF022201221142F1D10098315CDF
S31508001380042918BF4FF00009E86D000900F00100B4
S31508001390814588F8020021D0B9F1000FAA6C4FF4F4
S315080013A000604FF480610ED004B90846024215D099
S315080013B0686C40F001006864012188F80210A86989
S315080013C0CAF80C000AE004B90846024206D0686C5E
S315080013D0400840006864002188F80210BDE8F78FCD
S315080013E0A96C490801F0010170472DE9FE4F044632
S315080013F0DFF8EC53DFF8EC6320000CBF2868686858
S31508001400C1B2042905DC00F0C7F8B069401CB06118
S31508001410C0E041008DF800108A22DFF8A4839DF809
S315080014200010624308EB02094944019211F8080DBD
S315080014304A7802EB00201FFA80FAA6F806A0087977
S3150800144070618A7866328A70307818B9DFF898231E
S315080014501078307000223378DFF868730B703270BA
S315080014604A70386C20F4805038642000686E23D1A6
S315080014707868410525D41AF4E05F40F0808000F0D2
S3150800148049FE10B15FEA4A4079D5019918F801007A
S31508001490802874DA386C99F801108A0643D5696E83
S315080014A00A063AD4A96CCA0637D4396823000CBF91
S315080014B080224FF480722DE0012CDCD1786801057A
S315080014C0D9D5DFF82C130878B8B11AF4E05F0A709A
S315080014D0DFF8206302D0316840200BE099F801005C
S315080014E0000900F0010B5946292001F0D6FC3168A5
S315080014F05A468F2001F066FF04E0FFF771FF0920C6
S3150800150001F0CBFC20000CBF4FF480604FF4006064
S31508001510786039E00840104205D0FFF761FF0520E2
S3150800152001F0BBFC15E000F097FD50B199F80100F9
S31508001530810606D500F0AEFD18B1FFF751FF06206B
S3150800154002E0FFF74DFF092001F0A7FCB11C0020BF
S315080015500855686BADF80400296BADF806100198BC
S3150800156031893061491CB01C3181025D9DF800103B
S31508001570484601F02BFFB11C0020085504E000F096
S315080015800BF8B088401CB080002C07BF01202861EA
S3150800159002212961BDE8F78FA96C490801F001010C
S315080015A0042001F07ABC2DE9F84FDFF81862DFF85D
S315080015B030723568306CDFF84082DFF83492DFF835
S315080015C03CA2DFF818B205403AE071B18A21DFF88B
S315080015D0F021484310444378D80606D4DFF814327D
S315080015E0196800228F2001F0EDFE280608D50CB9EF
S315080015F000F0A4F801F0E9FE802025F080053060AF
S31508001600E90509D50CB900F099F801F0DEFE4FF4AA
S31508001610807025F480753060690407D50CB900F030
S3150800162086F84FF4804025F480453060290407D5B4
S315080016300CB900F07CF84FF4004025F40045306002
S31508001640002D70D00024280706D50020FFF7FFFDDF
S31508001650082025F008053060E90606D50120FFF7C1
S31508001660F6FD102025F01005306005F060016029B0
S3150800167003D1B86CC1050AD401E0A80605D5202116
S3150800168025F020053160002006E0680606D54021D1
S3150800169025F0400531600120FFF7A7FEE80404D5D0
S315080016A04FF4805125F480553160E8079DD5012116
S315080016B031606D0801F0EFFB6D0060B14FF44872C0
S315080016C05946012001F0EEFBB96CFFF78AFE0120AE
S315080016D001F0E3FB01249AF8010008B100F098F83C
S315080016E09AF80000002806D000F09FFC012807D1D0
S315080016F099F8000000283FF478AF98F800100429FC
S315080017007FF473AFF868400800F00100002814BFA2
S315080017107968396811B93168CA04F7D5002814BF41
S315080017207968396851E700203060BDE8F18FB96CF7
S31508001730490801F00101072001F0AFBBB96C49085F
S3150800174001F00101082001F0A8BBDFF8B400006829
S3150800175070470321022001F08BB97CB501F0A3F98B
S315080017604FF6FF76274D301A292190FBF1F4287899
S315080017703A34C0B90321032001F07AF922480188D6
S3150800178002237F226846FFF7D7FC01F08CF9BDF8E3
S315080017900010401880B2361A292096FBF0F0253042
S315080017A001216870297001F0BAF96878241A60B2C4
S315080017B076BD164800787047002000408420004017
S315080017C0B4FE002000A000404C10004072F5002036
S315080017D0D010004080200040DAFF002039120008AF
S315080017E02020004094FC002071F50020C8F4002059
S315080017F0D4FC0020E4FC002061F50020D6FF002080
S3150800180038200040D8FF0020FA760008DCFF0020C8
S31508001810704730B4002513E050F8042BD30744BFB3
S31508001820A9F101039A18091F042942F8045BFAD2A0
S3150800183013468C0744BF15809B1CC90748BF1D70FB
S3150800184050F8041B0029E7D130BC70473EB50FF2AB
S315080018501811DFF80C510A6801A8012302602B70E1
S31508001860002001F09BFE002430B1002001F096FE16
S3150800187010B12C7049203EBDDFF8E800018802232C
S315080018807F22684600F031F802237F2200210DF1FD
S31508001890020000F02AF8002001A931F81020BDF84E
S315080018A000108A4208BF0124401C0128F4D9002CE4
S315080018B0BDF8020004D0B0F57F7F07D100203EBDF9
S315080018C0B0F57F7F14BF042006200BE0012001F04D
S315080018D065FE002001F062FE0028EFD00020287087
S315080018E04A203EBD002129703EBD38B5B1F5807F3E
S315080018F009DADFF86C502C7854B101B0BDE83040F5
S31508001900C9B202F07DB901B0BDE83040FFF714BC9A
S3150800191031BD2DE9F0410746B7F5807F0C461546DF
S3150800192098460FF2480013DADFF834603178A1B12F
S31508001930727812B1CA2101F041F901227270434648
S3150800194022462946F8B202F0D3FA0020707004E065
S31508001950BDE8F041D52101F031B9BDE8F0810000BC
S31508001960D1FF0020FC760008FE01FD02746F6B654E
S315080019706E2E63001FB50C4C21880A237F22684609
S31508001980FFF7DAFBBDF800004FF6FF74A04204D15A
S315080019905FF0530105A001F011F9BDF800102246C9
S315080019A00020FEF7F3FC1FBDF4760008616E616C3B
S315080019B06F6775652D66696C7465722E6300000025
S315080019C0DFF8F417087848B1DFF8F007017901293C
S315080019D004BF4079042801D10120704700207047D0
S315080019E070B5DFF8E047E078012801D1002070BD26
S315080019F0DFF8DC57687868B1EE7820798619287997
S31508001A008642A8BF0646FEF7DDFB012202FA06F665
S31508001A10711E0840697908182081C0B270BD2DE989
S31508001A20F047C207044605D54FF4D9710FF61800DA
S31508001A3001F0C4F8DFF89C57286DC10748BF8C2011
S31508001A4000F19480DFF87C27DFF88467517800205E
S31508001A50107049B9307838B16078A96F400900F03C
S31508001A60010041F0010103E0A96F4908002049007F
S31508001A70A9675071DFF844777078B979DFF8588725
S31508001A80DFF8589798B1002313710129286D40F0A3
S31508001A900400286507D14FF6FF70C9F800004FF417
S31508001AA00071C8F80010FFF79BFF82460CE0286D0E
S31508001AB020F00400012928654FF0000A04D100F03F
S31508001AC080FA6420FFF765FAA86F20F00800A86777
S31508001AD01421E964C5F848A0707830B1B8790028AF
S31508001AE001BFA86C00280121A964B0790028286DD7
S31508001AF014BF40F0080020F008002865FFF760FFD3
S31508001B0028B1D9F8400040F00800C9F84000202064
S31508001B1028626C602C60042168687F3068602962DE
S31508001B204FF4E064DFF8B806046006E002F09AFBBA
S31508001B3018B102F09FFB01F02DF8DFF8A80601683E
S31508001B4001F003010329F1D0C8F80040286D40F0E0
S31508001B5001002865707810B90021252003E0B879BE
S31508001B6018B90021232001F098F90020BDE8F08774
S31508001B70DFF87406DFF87426DFF874360021416052
S31508001B808160016821F0020101604FF00070106069
S31508001B90012119707047332800D2704710B5B0F587
S31508001BA0002F0CD2DFF8484600212170FEF71CFFF3
S31508001BB002E0012002F020FE20780028F9D010BDAE
S31508001BC02DE9F84FDFF81486DFF8F875D8F8001015
S31508001BD0D8F84000DFF8FC6508401FFA80FAC8F814
S31508001BE000A07878002840F001815FEACA70DFF823
S31508001BF00446DFF8DC9551D53568306C716C41EADE
S31508001C000041396199F8000000283ED068788206BC
S31508001C103BD501233B700021282001F03EF9FFF750
S31508001C20CFFE00283AD01920FFF7B3F9DFF8C8B578
S31508001C304FF44040CBF82800DBF800100091E06E26
S31508001C4040F40050E066E06E40F48050E066297883
S31508001C5038694901B8310D18FFF777FD2D1AC5F314
S31508001C601300FFF798FFE06E80098001E066E16ED9
S31508001C70BDF800000143E16648F260700021CBF828
S31508001C802810E066F988216008E000212B2001F081
S31508001C9004F939690022002001F094FB5FEA0A6121
S31508001CA00ED5387830B100213970002239694020C4
S31508001CB001F088FBD8F83C0020F48050C8F83C00B6
S31508001CC05FEA4A610CD5787850B97979272001F00E
S31508001CD0E4F8FFF73AFD01460022892001F072FB7D
S31508001CE05FEACA606BD5DFF8D4542879012804BFA7
S31508001CF0A879012828D10021232001F0CEF800F088
S31508001D008AFB306F40F0010030670021A9714FF05F
S31508001D10000AFFF739FA0A20FFF73BF94FF6FF707A
S31508001D20DFF8B424C8F800004FF4E0611160092315
S31508001D30B3660120B064B16F41F00801B167306D38
S31508001D4040F0010030653AE03879401C3871C0B27D
S31508001D5099F80210884225D2FFF742FE8346BBF166
S31508001D6001018941C90F242001F097F82879012833
S31508001D7002D100F0F9F803E00021232001F08DF8E4
S31508001D80B06F20F00800B0671421B166C6F848B0F5
S31508001D904FF40070DFF840140860326D42F001021B
S31508001DA032650CE0787850B97979262001F075F813
S31508001DB0FFF7CBFC014600228D2001F003FB5FEA0A
S31508001DC00A7013D5FFF7FCFD48B12068F880012199
S31508001DD02160D8F8400020F00800C8F8400099F8BB
S31508001DE0010018B10021252001F057F85FEA8A6042
S31508001DF00ED520213162787850B97979272001F0FB
S31508001E004CF8FFF7A2FC01460022882001F0DAFA16
S31508001E10787840B11AF4407F05D100212B2001F0D3
S31508001E203CF80120B870BDE8F18FDFF8941320B1B3
S31508001E30086840F44040086070470A6822F4404247
S31508001E400A6070477CB50546FEF75FFCDFF8B40309
S31508001E50DFF87443DFF86463002101601522E2604D
S31508001E60092101651F22426001210166DFF89003FE
S31508001E700088FEF7D0FAFFF7ADF902F0E9FC00F0AA
S31508001E800CF9308960617189216100F083FE61680F
S31508001E9041F04001616000F08BFE707800F0C8F8F0
S31508001EA0B07800F0DCF8DFF86003007800F00CF991
S31508001EB0DFF8580390F90000FEF764FC307800F06C
S31508001EC045F996F9030000F050F9DFF84403018854
S31508001ED000F06CF9BDF80000C105DFF8381348BFFB
S31508001EE000200870DFF830030078FEF70FFC28B1F1
S31508001EF04FF485610FF2503000F060FE012D09D1D4
S31508001F002068C10715D500F02FF800212C2000F015
S31508001F10C4FF0EE06DB92068C1070AD400F07BFA49
S31508001F20206840F001002060C820FFF732F8002042
S31508001F30B071F120DFF8A452286440F2F911E96380
S31508001F4000F0A9FFFFF771FFFFF71EF92068C10728
S31508001F5007D54FF6FF70DFF8801228604FF4E0626D
S31508001F600A60FEF729FF73BD70B5DFF8B052DFF8D7
S31508001F704C422E68A079012822D000F00BFEB6B29A
S31508001F80DFF85C222E604FF4E0611160DFF86C1216
S31508001F900B6A5B085B000B620A68520852000A600B
S31508001FA00B6843F002030B604A6A42F001024A6278
S31508001FB00121A17100F0FCFDBDE8704000F009BAEE
S31508001FC070BD70B5DFF8F451A87950B300F023FA64
S31508001FD000F0E0FD0446DFF84812DFF8F061012062
S31508001FE008600021306D40F001003065A971FFF7E7
S31508001FF0CBF820203060316B41F002013163F06D7F
S3150800200040F00800F065204600F0D2FD0A20FEF7F1
S31508002010C0FF7249704B4FF6FF7008604FF4E062DC
S315080020201A6070BD654880797047644800797047C2
S3150800203010B5044600F0AEFD7A490A68002C04D0B3
S3150800204042F012020A60012103E022F012020A603D
S3150800205000215A4A517049E058484078704738B5C7
S31508002060044600F097FD0546FFF7A3FB58B9210083
S315080020706C4804D0026842F08002026003E00168FE
S3150800208021F0800101604D4884702846BDE8324041
S3150800209000F08EBD494880787047634A53781078B7
S315080020A0624900EB03230B609078D37800EB032397
S315080020B04B601079537900EB03238B609079D379C1
S315080020C000EB0323CB60704710B5044600F062FDB1
S315080020D02200544904D00B6843F020030B6003E048
S315080020E00A6822F020020A6047490C70BDE81040D1
S315080020F000F05EBD31480089704730494C4A088176
S31508002100106070472D48408970472C49494A4881D4
S31508002110106070474848007870477CB5474C65683A
S31508002120266848F20100206048F23201616080208A
S315080021302268ADF80020ADB2FEF72BFFA0686560F7
S31508002140B6B22660800B00F0010076BD02001E497B
S3150800215004D00B6843F002030B6003E00A6822F020
S3150800216002020A6015490870704738B57F28044688
S315080021700AD1334C218800F019F8BDF80000C105D2
S3150800218054BF04466FF04A0400F004FD0546FFF705
S3150800219010FB28B960B29A3080052A49000C0860FD
S315080021A00648C470284600F003FD31BD02237F228D
S315080021B06846FEF7C1BF0000E4FF00205CF500207A
S315080021C040A00040D4FC0020802000403020004081
S315080021D048F500201020004000E100E004A000407F
S315080021E080E100E0A820004010E000E004ED00E0F7
S315080021F0E5FF002064100040E41000406020004025
S31508002200ACF400205C100040E3FF0020A0F400209E
S3150800221002770008DDFF002071F500201C10004041
S315080022202810004084200040F0FC00209820004040
S31508002230942000409020004073F5002018100040BC
S3150800224006770008541000407068792D636F6D6D2D
S315080022506F6E2E630000000070B502F005FBEFF309
S315080022600880001F7D494FF0CD3201E040F804296F
S315080022708842FBD27A4A7B4892B2002100F0F3FDED
S315080022800120FEF767FC0020FEF717FE764C206853
S3150800229040F008002060FEF717F8FEF7FBFD7349CB
S315080022A073480A78C2604B78724AD360724B8D784D
S315080022B0DD608E880660CD884560088910604D8986
S315080022C0556088891860C989596000F082F82068C5
S315080022D020F010002060FDF7C7FF02F01BFBFEF799
S315080022E0CFFCFDF7EFFFBDE87040FEF709B838B53B
S315080022F0FEF712FCFEF7CEFD61485C4900F011F8C6
S3150800230000F020F800F006F8FEF7F7FCBDE83140CB
S3150800231002F00BBC5448016821F010010160FDF77A
S31508002320A3BF82680B7802F00F0203F0F0031A438A
S3150800233082604B784F4AD3604F4B8C78DC60CD88EF
S3150800234005607047088910604C8954608889186050
S31508002350C98959603DE0F0B50F249E0004FA06F6D7
S315080023601568304215D00026F7B207EB830C20FA21
S315080023700CF7FF0709D5B7009C4604FA07F731F8AA
S315080023801CE0BD4307EA0E073D43761CF7B2042F4F
S31508002390EAD31560F0BDF0B5FF26DC00A640156847
S315080023A0304214D000260124F7B207EBC30C20FAFA
S315080023B00CF7FF0707D504FA06F711F803C0BD4363
S315080023C007EA0C073D43761CF7B2082FECD31560D5
S315080023D0F0BD2DE9F84300210A2000F05EFD00F06B
S315080023E05EFD284C2068A0B10027244DDFF88080C8
S315080023F000F053F87F1CF8B20328F9D3002600270B
S3150800240000F054F800F040F87F1C761CF8B2032858
S31508002410F6D3BDE8F1832DE9F84300210B2000F03F
S315080024203CFD00F03DFD174C2068A0B100270F4D7C
S31508002430DFF83C8000F031F87F1CF8B20328F9D3A6
S315080024400026002700F032F800F01EF87F1C761CE4
S31508002450F8B20328F6D3BDE8F1830000A0EA00200D
S31508002460641000009800002000BC004044F40020DE
S3150800247000B0004000B2004000B4004054F4002010
S3150800248004B00040B0FB002008F1040000EBD9328C
S31508002490761C2068F3B2291D5DE7380608EBD030B4
S315080024A000F10C022068FBB2294674E74FEA076977
S315080024B02068F3B208EBD932291D4CE710B502F0B3
S315080024C011FA044602F012FAC0B208B9012C07D173
S315080024D0072C11D8DFE804F004100608080A0C0EC9
S315080024E0002010BD092010BD022010BD032010BD1C
S315080024F00B2010BD062010BD44F0800010BD000062
S315080025007047F0B40246106895681318506803EBD4
S315080025105004C0071DD54D441BE013F8017B05F890
S31508002520017B491EF9D1A0B1B60813F8011B06F0C4
S315080025300306032E08BF13F8016B01EB0621494277
S31508002540801C294405D011F8016B05F8016B401E63
S31508002550F9D1A3420ED013F8016B16F0030104BF9C
S3150800256013F8011BC91C30090F28DAD113F8010B1F
S315080025700F30D6E7F0BC02F10C00704729490A680B
S31508002580920992010A6000220B68184308604FF40A
S3150800259000412548016002606420FEF7FABC2DE977
S315080025A0F047224D1F4FD5F80090214C80462868E9
S315080025B040F400402860396821F480513960207859
S315080025C050B11C486278A17810F822608E1B4146EB
S315080025D010F82100861902E0012120262170B0B2E8
S315080025E0FFF7CCFF0FF2500A02E0B0B2FFF7C6FFC2
S315080025F0386B042805D0386B410754BF761E761C05
S31508002600F3E7F86A28B94FF49271504600F0D6FA03
S31508002610EEE784F80180A6701FFA89F02860BDE805
S31508002620F0870000D0100040181000401C10004031
S31508002630E0FF002096080008616E616C6F6775659B
S315080026402D76636F2E63000081014FF4FE5289B226
S315080026500C20FDF79BBE2DE9F84F904DDFF840B2F0
S31508002660AE682F6800F05BFA0124B020B6B24FF0CE
S31508002670000A4FF00A09A046BFB2286313E01AF110
S31508002680190F0ADA4FF00A0907E004F50040286036
S31508002690BAF11A0FF3DB6FF00909CA440FFA8AFA7E
S315080026A00AEB0600A860DBF80000010702D558EA25
S315080026B0040023D00120FEF76CFCB8F1000F13D0FC
S315080026C0F81E844205DAE41CA4B204F50041296028
S315080026D0DEE707F5004028600621092000F0C8F962
S315080026E03C464FF00008D3E7DBF800000107CFD5DA
S315080026F0042CA6BFE41EA4B20024C6E7AE602F6071
S315080027000820CBF800006749086880B2BDE8F28F58
S3150800271010B5614C644A21784FF0FF3371B110B19E
S315080027205360624803E00021516041F211101060C5
S315080027305F4841880088BDE810408CE7002819BF2B
S31508002740536013605060116000F0E9F9BDE810406D
S315080027500621092000F0DDB938B50120FFF7D8FFBA
S3150800276004460020FFF7D4FF05460120FFF7D0FFF7
S315080027704042041B04EB450420B232BD2DE9FE4F4E
S315080027804C4C4D4DA16A444FADF802104FF000086D
S315080027902268ADF80020D5F800A0387858B14FF671
S315080027A0FF7200210820FDF7E9FD8046C022C021FE
S315080027B00820FDF7EBFD4149DFF80491087818B1C8
S315080027C048F26071C9F8001002217888384E40F442
S315080027D0404040F04C00C9F83C00A162012020604E
S315080027E040F24C40FEF7D5FB0120E8602860002245
S315080027F0328040237380387800B12020FFF724FF09
S31508002800FFF7AAFF402131807F22834672807F200E
S31508002810FFF71AFFFFF7A0FF0290584602F08AF961
S3150800282002990646FE20ABEB010146430191387832
S3150800283050B1029802F07EF98346019802F07AF9BF
S3150800284080B206EB8B1603E0084602F073F980B2F5
S315080028500221B6FBF0F61FFA8AF028600022002053
S31508002860E8602160B6B2BDF800002060761CBDF8AD
S315080028700210A162C9F83C20F603387828B14FF651
S31508002880FF7241460820FDF781FD40F24C40FEF7F5
S3150800289080FB300CBDE8FE8F58F50020C0100040C4
S315080028A018A000400070004038100040EEEEFFFF10
S315080028B0C8FF0020602000402810004072F5002064
S315080028C0D010004041003F2289B201E001463F2274
S315080028D00220FDF75BBD2DE9F04F5849584D93B0DE
S315080028E0CA6CADF808204FF6FF720B68ADF80630D3
S315080028F00021E86AADF8040000240120FDF73EFD3A
S31508002900ADF802004FF6FF7200210B20FDF736FDE9
S31508002910ADF800004FF400404849086000222A61DB
S315080029206A6148F2020100F093F844494CF68C308B
S31508002930C86448F2F002EA6201204FF48052114658
S31508002940FDF724FD4FF6FF7200210B20FDF71EFD53
S315080029500621062000F0DDF8814600F084F80646D8
S3150800296036494CF69C30C8640020FFF7ABFF0621B9
S31508002970062000F07DF8A0B2FFF7A4FF0621062086
S3150800298000F076F800F08FF803A921F81400641C0B
S31508002990202CF0DB00F087F81020FFF793FF00F0FB
S315080029A062F8811BBDF82C00A0EB090001FB01FAB7
S315080029B000FB00AA102411270DF10C0800F04DF8B1
S315080029C000F051F800F03EF804DB3C467F1C202F4F
S315080029D08246F3DBA0B210280DD10F2700F03DF890
S315080029E000F041F800F02EF805DB3C467F1E3FB2AA
S315080029F0002F8246F2D51148BDF80810C1644FF67B
S31508002A00FF76BDF8062002603246BDF80400E8628B
S31508002A100120BDF80210FDF7B9FCBDF800103246DA
S31508002A200B20FDF7B3FC01202861002100F010F807
S31508002A306000C0B213B0BDE8F08F0000C0100040BF
S31508002A4018100040801B40430BFB0B005045704795
S31508002A50296040F24C40FEF79CBA38F81700A0EB04
S31508002A60090BB8B22EE70621072000F052B800007D
S31508002A7070B504460D4602F061F83F4E306C20F002
S31508002A8008003064E40102F05BF800F083F844F0D3
S31508002A9001043A4944EA05340C6008223260BDE86C
S31508002AA0704000F085B82DE9F041354C354D324E71
S31508002AB025E002F043F8344904200860326C42F0FD
S31508002AC0080232642F68286840084000286000F031
S31508002AD067F8D4F80080206820F04000206000F0F5
S31508002AE077F9C4F800802F6000F05AF8306C20F0AF
S31508002AF00800306404212548016002F021F8316895
S31508002B000807D6D50821224A3160106880B2BDE888
S31508002B10F08180B5FFF7ACFFBDE80140C3E7174871
S31508002B2001684908490001607047F8B50446FEF790
S31508002B30EDF9054621460320FFF7EBFF0646214639
S31508002B400120FFF7E6FF0746FDF717FC21460020A0
S31508002B50FFF7DFFF0446FDF70FFC08480168490840
S31508002B604900A41B01602404BE1BB4FBF6F04543D0
S31508002B706D00280CF2BD000018A00040047000404B
S31508002B800080004094ED00E000E100E080E200E013
S31508002B9000700040EFF31180602181F311887047BF
S31508002BA0BFF35F8FBFF34F8FBFF36F8F7047000080
S31508002BB080F311887047000042DE704738B5044636
S31508002BC00D46FDF789FBFFF7E5FF2946204601F08C
S31508002BD0DEFF2B464FEA040278A1012002F018FA1C
S31508002BE029462046BDE83440E6E76B482DE9F84318
S31508002BF06A4E0168B1654FF42068026A6849F26551
S31508002C000B683366416A7166826AB266C16AF166A2
S31508002C10026B3267806B96F83810706748074CBFAE
S31508002C20346CF46B02F068FA002232658442DFF8ED
S31508002C3074E1014624BFAEF12007A742A14671659B
S31508002C4006F18C02584BDFF864C118D3A06970648A
S31508002C50E469B464B56DC5F30805062D13D160455E
S31508002C6011D398420FD200884DF64264A0420AD189
S31508002C707068B4685060946040F2017803E00024FC
S31508002C807464B46481464A48814238BF014608469E
S31508002C90704570D20C68B4F1CD3F08BF091DF6D057
S31508002CA069E0062C09D1C4B2002C0CBF0520401ED1
S31508002CB006F17804C5B244F82510F1451FD25EF82E
S31508002CC0041D6145F9D39942F7D2CC07F5D50024FE
S31508002CD006F1780555F824708F42E2D0641C062C5C
S31508002CE0F8D3DEE7B16F002306F1780506EB830417
S31508002CF0E46F45F823405B1C042BF7D911600146A5
S31508002D00481EC9B20029EDD1B06DC0F308000228EB
S31508002D100AD0032815D0042816D0052817D0062867
S31508002D2018D00C281CD01EE022480268910748BF1C
S31508002D3040F602181CD40068C10719D540F202589B
S31508002D4016E040F6012813E040F6022810E040F6A7
S31508002D5003280DE0B8F5206F0AD140F6042807E0ED
S31508002D6040F6052804E018B1242838BF40F607289D
S31508002D704046BDE8F2831049081AF0640021002095
S31508002D8006F17804C5B2401CC7B244F82510062FD0
S31508002D90F8D3002091E7000004ED00E000000020D1
S31508002DA000E300E000F400203071000890010008FC
S31508002DB0980000201CA0004000F400200D0A5B418A
S31508002DC053534552543A25703A25645D0D0A00005E
S31508002DD000BF30BF00BF704770B5814224D210448F
S31508002DE01144401E491E10E011F8013900F8013956
S31508002DF0121F11F8014900F8014911F8015900F8A4
S31508002E00015911F8016900F8016993B2042BEBDA4C
S31508002E1093B2002B1EBF11F8013900F80139521E72
S31508002E20F6D170BD00F00DF893B2042BFADA93B21E
S31508002E30002B1EBF11F8013B00F8013B521EF6D1CC
S31508002E4070BD11F8013B00F8013B121F11F8014B48
S31508002E5000F8014B11F8015B00F8015B11F8016BF2
S31508002E6000F8016B7047130003D00A46194602F0B2
S31508002E705DB9704710B5034600E0521E90B218B10E
S31508002E8000F003F8F9D0001B10BD13F8010B11F878
S31508002E90014BA042704700207047002070477047DA
S31508002EA0704700002DE9F84305460E4630001446E3
S31508002EB003D1FEF74AFC24184BE02F46022F0FF2E7
S31508002EC0401803DB4B214046FFF778FE102C05D24D
S31508002ED02846B047BDE8F143FEF737BCDFF8149142
S31508002EE059F8270018B153214046FFF767FEB4F595
S31508002EF0002F03D354214046FFF760FE49F82760A8
S31508002F003D4F3E4E95B9FFF745FE0546FEF71DFCBB
S31508002F102418A0B278600221200C38603160284657
S31508002F20FFF746FE306C40F0020011E0FFF732FE74
S31508002F300546FEF70AFC2418A0B2F8600421200C06
S31508002F40B86031602846FFF733FE306C40F0040065
S31508002F503064C4F31300BDE8F283000070B504467C
S31508002F602646022E0D4604DB5FF0770124A0FFF704
S31508002F7025FEFFF70FFE1F4951F82620AA4210D159
S31508002F80002341F82630002C1C490A6C04D122F093
S31508002F9002020A64022303E022F004020A640423FC
S31508002FA00B60BDE87040FFF703BE70B5134C114EB9
S31508002FB02568206C0540ADB2A9070AD5206C20F01B
S31508002FC00200206431680A0003D000233360002021
S31508002FD0884769070CD5206C20F0040020647168C6
S31508002FE0080003D0002272600120884700F010F81C
S31508002FF0256070BDE8FC00204020004008A0004085
S3150800300073796D626F6C2D74696D65722E6300003D
S31508003010704700000020704710B5DFF8800302F003
S31508003020F3FAFF2804460DD0032102F023FB012002
S3150800303002F052FB204602F022F9BDE810400020BB
S3150800304002F04ABB10BD1CB5FDF798FB0446FDF718
S3150800305092FBD3490A880FF278310092234602463A
S31508003060002002F075FC13BD10B581680C68E0B24B
S31508003070FDF779FBE2B2BDE8104003460FF2803156
S31508003080002002F065BC2DE9F0478068C549046850
S315080030900A68C54DE3B2012712F80380002617E037
S315080030A0F1B2E0B202F04CFA8146711CC9B2E0B244
S315080030B002F046FA8246484600F08EF881465046A7
S315080030C000F08AF8F9B200EB091068547F1CB61CA8
S315080030D0F0B24045E4DB781E2870BDE8F08770B58D
S315080030E00FF23831B04E002002F032FC0024A9A5B8
S315080030F009E0E0B22946325C002002F029FC0020F3
S3150800310001F076FF641C3078E1B28842F1D2BDE85E
S315080031107040A1A112E080B5FEF7FFFF012809D192
S315080031200FF20C31002002F013FCBDE802409E4865
S31508003130FEF775BCBDE804400FF2FC21002002F042
S3150800314007BC38B5994C217B11B10FF2FC211DE063
S315080031500122E17322734FF6FF75806881686173F7
S31508003160002102684068A17300EB024020622846ED
S31508003170FEF7CBFF2846FEF7C0FF894805800021E9
S3150800318004F1100002F026FC0FF2CC21BDE8344011
S31508003190D4E700007CB5806804684568E0B2FDF7AE
S315080031A0E2FA0646A8B2FEF7B0FF4FF6FF70FEF742
S315080031B0A4FF7B48ACA105800096ABB2E2B2002022
S315080031C002F0C6FB73BD00007949007C51F8202047
S315080031D0B1A1002002F0BCBBA0F130020A2A38BF18
S315080031E030380AD3A0F14102062A38BF373804D34B
S315080031F0A0F16101062902D25738C0B270470020F3
S31508003200704700003EB50446684D0A202870032121
S315080032100020E8700822FF2028716871A871E871FB
S3150800322069700720AA702872FFF716F8FDF768F884
S3150800323001F020F802F0FAFB012300220821002001
S3150800324001F0FEFDFEF702FB042808BF0FF2542129
S315080032500BD0062808BF0FF2742106D0072808BF2E
S315080032600FF2842101D018B1A7A1002001F0D0FEE9
S315080032705048018808237F226846FEF736FB082255
S3150800328069464D48FFF7A8FD0020FEF7D1FE00204D
S31508003290FEF7E5FE0020FEF7D5FD01F08DFC204681
S315080032A002F049FD4FF4007105F1240002F092FB8B
S315080032B037BD80B5072002F0F9F9BDE804404FF4A0
S315080032C000713E4802F086BB10B5384C00202074C9
S315080032D0E07B216AC140CA070ED4401CE073C0B225
S315080032E01B28F5DB12E0E17B8DA002F0A6FF00218A
S315080032F0A173BDE810400CE0FDF73DFAE17B814281
S31508003300F1D00846FDF72FFA8A28ECD10020207361
S3150800331010BD10B5254C00202076FEF7FEFE0128CC
S3150800332002D0A07B04280EDB0021A1732046FEF7FD
S3150800333076FBE07B617B401CE07304F11000BDE87E
S31508003340104002F047BB052104F1180002F042FBC9
S31508003350A07B401CA07310BD38B5194C75A5204636
S31508003360FFF750FF0020FEF763FE0020FFF76BFE15
S31508003370FCF7B2FFFFF750FE284602F038FB0022A2
S315080033800021204602F0E4FC01F066FE01F0DAFBBB
S31508003390EEE70000257820005D0D0A0078F500208C
S315080033A068F50020B4F40020F0FD0020C4FD0020DC
S315080033B0ECF4002008770008F0FC0020E8FD002067
S315080033C014F50020704700207047704770470000CA
S315080033D0536E6966663A2076312E31206368616ECF
S315080033E06E656C20256420706F77657220256420D1
S315080033F070616E49642030782532580D0A00000045
S31508003400736574206368616E6E656C202564202D73
S315080034103E20307825580D0A000000006275666661
S31508003420657220636F6E74656E74733A205B000074
S3150800343054580D0A00000000434341206661696C38
S3150800344065640D0A000000005363616E20666169B9
S315080034506C65640D0A0000005363616E2073746125
S31508003460727465640D0A0000736574206E6574775E
S315080034706F726B206368616E6E656C2025642070C0
S31508003480616E4964203078253258202D3E203078E8
S3150800349025580D0A000000004572726F723A202501
S315080034A0700D0A00454550524F4D204D4647206144
S315080034B06E6420535441434B2076657273696F6E70
S315080034C0206D69736D61746368000000454550524C
S315080034D04F4D204D46472076657273696F6E206D95
S315080034E069736D6174636800454550524F4D2053AA
S315080034F05441434B2076657273696F6E206D69730C
S315080035006D61746368000000556E6B6E6F776E2090
S31508003510454550524F4D206572726F72000000008B
S315080035205363616E206368616E6E656C2025640D59
S315080035300A000000E8FD0020B3320008DCFD002088
S3150800354013330008D4FD0020C9320008000000002B
S3150800355000000000F8B50F4C2768060001D1FF20CF
S31508003560F2BDFFF717FB0C4D21682A7821F8126087
S3150800357037F8021BB142FBD1FFF71AFB20682B78FC
S31508003580B91E081A4010C2B29A4208BFFF20C0B23C
S31508003590F2BD00BFC4F4002077F500202DE9F84FEE
S315080035A08AB081462322FF2101A8FFF75CFCDFF8D9
S315080035B0B0B08822FF215846FFF755FC31A0294EA6
S315080035C0294FDFF8A88000904FF0230A002518F845
S315080035D005207C5D705D521C02EBD272521000B160
S315080035E01932234830F815100098521C624392B2DB
S315080035F002F023FE012C1CBF2BF815A0A2446D1C5B
S31508003600232DE4DB5FF0230340F21C4240F216212F
S315080036100FF28C0017A402F010FE4FF4E04000F001
S315080036201DF918B1BB212046FFF7C8FA4FF48040B0
S3150800363000F014F918B1BD212046FFF7BFFA4FF480
S31508003640805000F00BF918B1BF212046FFF7B6FAF3
S31508003650484601A900F030F90BB0BDE8F08F00002C
S3150800366028FB002078710008C07100089C710008CA
S315080036703071000873696D2D656570726F6D2E6304
S315080036800000000043726561746F723A2030782535
S3150800369032582C20576F7264733A2025640A00004A
S315080036A053696D454520646174613A202564207725
S315080036B06F726473206F66202564206D61782C20F4
S315080036C0746F6B656E436F756E743A2025640A00D5
S315080036D030B5DFF8545ADFF8544A2B882468C01AE4
S315080036E004EB4004002004E034F8103021F81030D0
S315080036F0401C9042F8DB002030BD30B5DFF82C3A8C
S31508003700DFF8FC5A1C682B68E31A03EB4003002019
S3150800371004E033F8104021F81040401C9042F8DBD2
S31508003720002030BD2DE9F84380460E469146002517
S31508003730DFF8F84901E0AD1CEDB24D4518DA70190D
S31508003740735D4078DFF8BCEA03EB0023ADF8003080
S3150800375005EBD57708EB6703BEF800702068DB1B1E
S3150800376000F009F80100E6D002F0D2FD002000E0E2
S315080037700120BDE8F2830122694600EB430002F00E
S3150800378063BEF8B504460D46164600270DE000F060
S31508003790ADFCBDF8000004EB4701000A48706D1C3B
S315080037A0BDF8000004F817007F1CB7EB560FEEDBD8
S315080037B0F10706D500F09AFCBDF80000A11901F83A
S315080037C0010CF1BDDFF86039DFF860191A8809685D
S315080037D0801A01EB4001022002F0FCBD0146DFF829
S315080037E0280ADFF8282A405C525CDFF8243A595C3C
S315080037F009B102F5997240EAC21080B2704710B555
S31508003800DFF8043ADFF80C2A1C5C012C02D102EB23
S31508003810400010BD32F81000091802EB410010BD37
S3150800382038B5DFF8F4391D780C462A46FFF750FFFD
S31508003830208800281CBF4FF6FF7188420AD0012055
S3150800384000E0401CC1B2A94206D234F81110228801
S315080038509142F6D0002032BD012032BDF8B5DFF81E
S31508003860A01986B008600C2269460020FFF745FFBC
S31508003870BDF81650BDF80C302C462D0A012000263E
S315080038804FF6FF773DF81610BDF800208A4203D19F
S31508003890B94218BF002900D10020761C062EF1DB9C
S315080038A0FB1A9A4218BF0020E4B2C5F1FF05AC42E4
S315080038B018BF002007B0F0BD2DE9F34F0646DFF824
S315080038C05C49DFF85C290020207060809BB0108876
S315080038D0ADF8000001A9FFF7A3FF80460121DFF834
S315080038E04409BDF800A06170B0F80090DFF83819F7
S315080038F0DFF834080D88078803A93846FFF790FFD4
S31508003900D0B1B8F1000F47D0BDF804104FF6FE70DD
S31508003910814204D1BDF80C00012806D10FE0012927
S3150800392004BFBDF80C10814236D0BDF80400BDF8BE
S315080039300C10884230D202E0B8F1000F2BD00020DC
S3150800394060700797CDF82890524609950DF1020147
S31508003950DFF8C43818788218ADF818200122BDF8A7
S315080039601800FFF7B5FEDFF8B028DFF8C00892F8B0
S3150800397000800188BDF802000891000B404518BF79
S315080039800F284FF6FF7900D13EB3DFF8A00801886B
S315080039900891002517E0012660780128D1D1CDF8D5
S315080039A01CA00A953A46CDF82490CFE7089E6E43A8
S315080039B0F01980B2FFF706FFBDF800003618B0B25E
S315080039C0FFF700FF6D1C4545F0DB012020704D20F8
S315080039D002F09EFC079F0025F2E0BDF81870012250
S315080039E069463846FFF774FEBDF80000DFF8401850
S315080039F0C04300F0FF00ADF800007F1C0D88A84208
S31508003A00DFF830080B9018BF01264FF0000A1EE0B9
S31508003A10401CC1B2A94216D20B995FFA80FB31F855
S31508003A201B20BDF816108A42F2D1C0B2FFF7D6FEA7
S31508003A30BDF814304FF6807210401340984204BF08
S31508003A401C9800F80BA00AF101001FFA80FABDF8CD
S31508003A500000824507DA022205A9B8B2FFF738FE48
S31508003A60BF1C0020D5E7DDF870B0002001E0401C3F
S31508003A7080B2A8421ADA1BF800108142F7D0012654
S31508003A8014E02AF81270BDF8183003EB40035B1CEB
S31508003A90012205A998B2FFF71BFEBDF81400C0F372
S31508003AA0C710401C00EBD07007EB60070999DFF8D8
S31508003AB064A7B8B2884212DA00F09EF8BDF8020090
S31508003AC048450CD0BDF80020BDF802107F1C000A3E
S31508003AD0904201F07F01B8BF002203DB01260020D7
S31508003AE02DE0521CAA42CEDA1BF802308342F8D1E6
S31508003AF0D2B2FF2AC7D0DFF810379B5C7F290CBFEC
S31508003B004FF0000C8C469C450BDABDF802C0DFF876
S31508003B1000E71EF802E04FEA0C6C4FEADC7CF4453D
S31508003B2001D00126AFE7012BABD07F293AF8122046
S31508003B3008BF002189182AF81170A4E7401CDFF88D
S31508003B40F8160A88904204DA3AF810104945F5D171
S31508003B5001266780099DB8B2A8423FDA00F04CF802
S31508003B60BDF802007F1C4845F5D030E7B0B2FFF734
S31508003B7029FE203D20350A9A0798A9B2121A9142C1
S31508003B8011DA2E1820220BA9B0B2FFF7A1FD0020EA
S31508003B900BA982B231F812304B45E7D1401C81B2ED
S31508003BA02029F5DBE6E70120207000201DB0BDE8DE
S31508003BB0F08F089805FB007080B2FFF703FE6D1CB6
S31508003BC04545F6DB01202070494600F054F818B147
S31508003BD000F052F90028E8D10120E7E7002EC4D109
S31508003BE0079801220BA980B2FFF772FDBDF82C00D9
S31508003BF04845DAD10025BEE701220DF1020167E545
S31508003C002DE9F0410F46DFF82816DFF8006615465D
S31508003C100A889742044698460CD2DFF8EC15CA5D26
S31508003C2028467F2808BF0020904203DAF35D9845AE
S31508003C3000D11CB940F28D4100F036FA29463846C3
S31508003C40FFF7DDFDDFF8C8250188D05D60B138468D
S31508003C5000F051FAF15D012908BF207009D0022948
S31508003C6014BF2060208004E042462046BDE8F041AB
S31508003C7087E5BDE8F0812DE9F84FDFF8B435DFF8C0
S31508003C8098251D880746DFF8A004B0F800A08846E6
S31508003C90DFF88815487884B000281ABFDFF8801541
S31508003CA00C885446ED4305F0FF05117805EB013500
S31508003CB005F55065ADF800500C19DFF87054286802
S31508003CC0A3B2A3EB0A03FFF756FD641C0100A4B2D6
S31508003CD040F0C5804FF00009DFF8586515E05FFA37
S31508003CE089F0FFF77BFDADF80000A4EB0A0336F870
S31508003CF01900ADF8020002222868FFF73DFD010011
S31508003D007AD1A41CA4B209F10109DFF824050188B7
S31508003D1003918945E3DB00268DF80270ADF806802D
S31508003D2000E0761C0398864280F2A1804FF0000BD3
S31508003D3023E0012201A91FFA89F0FFF7C9FC029BBB
S31508003D402868FF18A7EB0A07012201A900EB47001C
S31508003D5002F07AFB010009F101094DD108F10108C9
S31508003D605FFA88F7B7EB146FE3DB029FDFF8CC1432
S31508003D70885DC419A4B20BF1010BDFF88C04875DCA
S31508003D805FFA8BF1B942CCD2F0B2FFF738FD804624
S31508003D90DFF87C04815DB8F80090C90141EA062184
S31508003DA0012FADF8001006D1BDF8000040F07F00E5
S31508003DB0ADF8000006E0BDF800105FFA8BF001438D
S31508003DC0ADF80010A4EB0A0228684FF6FF7300EB63
S31508003DD04200671C99451EBFBDF80010BDF80620B5
S31508003DE09142BFB218D19DF802100029C3D0012212
S31508003DF0694602F029FB010031D1DFF81004DFF82B
S31508003E004014A8F80070825D51F826103846FFF76E
S31508003E1089FC0028AAD125E0DFF8F0138C5D641C24
S31508003E200122694604EBD47402F00EFBE405010096
S31508003E3015D1DFF8DC13A8F80070885D98B14946FB
S31508003E40F0B200F058F90290A7EB0A032868220E90
S31508003E5002A900EB430002F0F7FA010086D002F04F
S31508003E6057FA00201CE14FF00008029778E7DFF8C0
S31508003E70AC0344800120F5E72DE9FC41DFF8A003F7
S31508003E80DFF898530688A84968780C88DFF89C827A
S31508003E90002812BF20463046264601226946FFF70B
S31508003EA017FCBDF8000001280CBF4FF6FE71411E35
S31508003EB0DFF86403ADF8001007783846471E80B26D
S31508003EC060B1BBB2D8F800009B191B1BFFF753FC67
S31508003ED00100F2D002F01CFA002007E06878401EC4
S31508003EE08041C00F6870002028700120BDE8F68167
S31508003EF02DE9F84F84B08246174601208DF8050053
S31508003F008B46DFF82C23DFF80493108882451E467B
S31508003F104FF0000855460FD2DFF8EC124A5D3846D6
S31508003F207F2808BF0020904206DA19F805309E421D
S31508003F3002D1BBF1000F03D140F2B55100F0B4F83D
S31508003F4039465046FFF75BFC0290DFF8D072787866
S31508003F5028B1DFF8D01274480C88018805E0DFF82C
S31508003F60C812DFF8BC220C881188387850B9DFF8F7
S31508003F70D42278881388411A9942B4BF4320442032
S31508003F8002F0C6F90299A24A0988505D10B3504654
S31508003F9000F0B1F8012E08BF9BF8001005D0022EDC
S31508003FA00CBFBBF80010DBF80010814278D00298ED
S31508003FB00388581E00F0DEF8A048465D7888641E1F
S31508003FC0A41B844201DB002843D13878002838D165
S31508003FD0452057E08DF80460C2469DF805600391B8
S31508003FE028E003980AEBDA7300EB630001220DF16F
S31508003FF0020180B2FFF76CFB0BEB0A009DF8042068
S3150800400040781BF80A10521E924501EB002007D192
S31508004010BDF8021001F0FF0100F0FF00ADF8021034
S3150800402080B2BDF8021088420AF1020018BF0026C5
S315080040305FFA80FA9DF804008245D2DB002EB6D0DE
S315080040402EE0BDF800100020FFF715FE40B34FF034
S3150800405001087888401C7880594619F8052080B2EE
S31508004060FFF760FBE0B1304C30487D882388006854
S315080040706D1EED1A0122694600EB450002F0E4F9CF
S31508004080010002D002F044F90AE0B8F1000F02D0AC
S31508004090FFF7F2FE20B102997888088036187E80EC
S315080040A005B0BDE8F08F000068A0FEF787BD7CB5B7
S315080040B005460026192400F019F8BDF800006D1C05
S315080040C030B14FF47F41401A07D0FF3803D006E0DD
S315080040D0B61C641EEFD170B276BD761CFBE7BDF840
S315080040E00000C0B200B9761CF643F4E7012269461F
S315080040F0A8B2FFF7EDBA38B50023444D00930C4635
S315080041002D5C2A4668466D1CFFF73BFB05EBD5750B
S3150800411004EB6504A0B2FFF7CAFF002848BFC043F6
S31508004120009940B2401832BDD474000840F400200B
S315080041307CB53A4908780024D0B94878002819BFD0
S3150800414037490D882F48058833490E780BE0F0B2B9
S31508004150401900F00FF8BDF8000000281EBF4FF602
S31508004160FF718842641C3046461EC0B20028EED154
S31508004170E0B276BD0122694680B2FFF7A9BAF8B562
S31508004180264E30780025002837D11E4970780C88CD
S315080041900028214805781ABF21490F88274628464E
S315080041A0451EC0B2012821DDE8B2C019FFF7E2FFBB
S315080041B0BDF800000028F2D01C490888EEB206FBBC
S315080041C0007080B2FFF7FEFA1F4800680021ADF8BC
S315080041D00010F7193C1B0122694600EB440002F067
S315080041E033F9010009D002F093F806E03846FFF7E4
S315080041F0E9FAE8B208B901203070E8B2F2BD000069
S315080042008CFE0020D4740008C07100089C71000858
S315080042107871000828FB0020D0740008CCFF002025
S31508004220D8740008D6740008DA740008D274000836
S31508004230DE74000830710008E0740008E4740008B1
S3150800424044740008DC74000840F4002073696D2D7E
S31508004250656570726F6D2D696E7465726E616C2E10
S3150800426063000000EFF3118060288041C043C00F4F
S3150800427070470000002181F311887047010008D4B7
S31508004280012200F01F01DFF878358A40400943F81B
S31508004290202070472DE9F84FDFF86C4590B080462E
S315080042A060680F90B8F1070F8A4608BF4FF00308F9
S315080042B00AD0B8F1080F08BF4FF0020804D0B8F1C9
S315080042C0050F08BF4FF0040841460120FEF718F90C
S315080042D0DFF838653168706841EA0021B06841EA5C
S315080042E000497168480703D5E16941F00201E161B7
S315080042F03068410703D5E06940F00400E061F069E1
S3150800430029FA00F1CA0703D5E06940F00800E06120
S31508004310A8F10101DFF8EC54DFF8F4740020032952
S31508004320286000F25882DFE811F0200206001B0020
S315080043300400606014E0386CC10703D5E06940F0FA
S315080043404000E061386C410703D5E06940F0200081
S31508004350E061386C810703D5E06940F01000E06140
S31508004360BAF1000F04D002F0B1F88DF8000002E0AF
S3150800437000218DF80010FEF70DFCFBF7BAFF8DF84B
S3150800438001000121DFF88C04DFF88C24C0F58030A9
S31508004390000B01FA00F0401E90634FF0000B000A74
S315080043A007D1DFF8780402781AB1606C40F0200073
S315080043B060643A6CDFF868A40E927B6C0D93DAF8A9
S315080043C04C000C90DAF850200B92DAF854300A9325
S315080043D0DAF85820DFF840340992186808905A68C5
S315080043E007925A6906925A6A05925A6BDFF834346C
S315080043F004921868DFF83024029002201368DFF868
S315080044002C24039320601368DFF824048DF8043005
S315080044100268DFF820048DF8052002688DF806206A
S315080044204FF0FF30DFF8D82360621368D8040AD546
S315080044307368D80707D5E369D80704D52B6843F40A
S3150800444080738B462B60106883040AD57068430610
S3150800445007D5E069C30704D5286840F480408B4631
S315080044602860136858040ED5B36929FA03F0C00703
S3150800447009D5E369D80706D52B68B06901FA00F0B3
S3150800448003438B462B601368180410D5F36929FA81
S3150800449003F0C0070BD5E369D80702D4E369180708
S315080044A005D52B68F0698B46814019432960396820
S315080044B0880707D5E169C80604D5E87840F0010001
S315080044C000F096F93868410707D5E069810604D5F2
S315080044D0E87840F0020000F08BF93868C10707D584
S315080044E0E069410604D5E87840F0040000F080F958
S315080044F01068C10307D5E069010604D5E87840F0DD
S31508004500080000F075F900207168CA07716848BF8D
S315080045104FF480504A06B16948BF40F4005029FA62
S3150800452001F2F169D30748BF40F4804029FA01F245
S31508004530D307E16948BF40F40040CA0605D4E169DB
S315080045408A0602D4E1694A0601D540F01000E169FD
S315080045500A06029948BF40F4803008400290A52018
S31508004560FBF7BEFE0120E063E169A06B10B1606A4B
S315080045700842FAD0606A084200F0CD800021E16363
S31508004580E87840F04000E87000F0D8FADFF888B222
S315080045900498CBF83400072139600F22CAF80020A6
S315080045A001F098FF0F98A04AA34B60600E993964F2
S315080045B00D9878640C99CAF84C100B98CAF85000F4
S315080045C00A99CAF854100998CAF858000899CBF8F5
S315080045D000100798CBF804000699CBF81410059834
S315080045E0CBF82400DFF83CB20298CBF800004FF075
S315080045F0FF300399116018608C498D480A688D4907
S315080046002A7003686B700868A870606AE169F369C4
S31508004610019A0840296851400206520E09EA01012A
S3150800462002F0010241EA82210206920E02F001021C
S3150800463041EA82010206D20E02F0010202FA03F3EF
S3150800464000050B4300F07C5003432B60FEF7A2FAEB
S3150800465000F076FA002121609DF8010008B1FBF709
S3150800466033FEE878DBF80010CA0304D5C0F3C001AE
S3150800467009B120212162396C8A0703D5C10744BFD5
S315080046800222FA60396C4A0704D5C0F3400109B121
S315080046900421F960396CCA0704D5C0F3800008B153
S315080046A00120F860DAF84C0010F0E00F05D0286811
S315080046B0C10544BF0C20FFF7E1FDDAF8500010F001
S315080046C0E00F05D02868410444BF0D20FFF7D6FD4A
S315080046D0DAF8540010F0E00F07D02868B169C8402E
S315080046E0C00744BF0E20FFF7C9FDDAF8580010F0DE
S315080046F0E00F07D02868F169C840C00744BF0F20FB
S31508004700FFF7BCFDE87840F08000E8709DF80000EF
S31508004710FEF74EFA65E0BBF1000F7FF431AF3E4875
S3150800472081694908490081613F48816841F004016F
S31508004730816040F2072041490A88824202BF4888C0
S315080047404FF20F02904205D13C484CF23C31418071
S315080047504FF0010B012001F0DDFEBBF1000F03D085
S3150800476036494FF20F00488010E7FBF7C2FD0446B2
S31508004770A520FBF7B5FD00F0E1F9BAF1000F03D06B
S3150800478001F0A4FE064600E00026FFF773FDDFF8F9
S31508004790B0902C4FD9F80050D9F8000040084000D6
S315080047A0C9F80000FEF7FCF9D7F800A0386820F031
S315080047B040003860FEF70CFBC7F800A0C9F80050A7
S315080047C0FEF7EEF90CB1FBF77FFD3046FEF7F0F980
S315080047D000F0B6F905E040F26B4100BF1AA0FEF7FB
S315080047E0EDF9414611B0BDE8F04F0020FDF788BE4F
S315080047F04FF0010BE8707047FFE700214AE500001B
S3150800480000E200E0B4FB00200400004008BC0040C1
S3150800481014A0004000000000044000409807080863
S3150800482014A8004000E100E008ED00E008B00040F0
S3150800483008B2004008B4004080E200E00000002012
S3150800484094ED00E000800040736C6565702E63008F
S3150800485003480188034808237F22FCF76DBC00BF84
S3150800486008770008F0FC002090B52248016801F09E
S31508004870FF010020002221FA02F3DB0710D4521CA4
S3150800488094B2082CF7D31C49088140F201720889B2
S31508004890904204D11948D0E90023C1E9002390BD0C
S315080048A018A1174B92B231F8120006284CF23C3187
S315080048B04FF20F020AD15888904203D11888020A8B
S315080048C00B2A01DB4FF4C0605980DCE740F207246D
S315080048D0A04201BF5F8897421A88A242D3D1598065
S315080048E02046D0E704480089000A70470248008934
S315080048F0704700002C0000401CFB002090000020A0
S315080049000000002001040204010301050600070255
S31508004910030901092DE9F041454C464EDFF8188197
S31508004920002020654FF40055356002202060E560C0
S31508004930002121654FF48047206D40F06000206516
S315080049400E2000F01BF888F800000021616537602A
S3150800495004202060E7601621384A1160002060654F
S315080049601620616D41F06001616500F007F888F86E
S315080049700100334805600760BDE8F0810E2802D0C3
S31508004980162802D009E02F4800E02F480068800961
S3150800499000F0010080F0010070470020704710B554
S315080049A02348254C4FF40051C160022202600E20B4
S315080049B0FFF7E4FF227801468A4218BF21700DD11D
S315080049C0501E8041C00F20700E20217801F09EFCF9
S315080049D02078401E8041C00F20702178BDE8104025
S315080049E00E2001F093BC10B51148134C4FF48041CA
S315080049F0C160042202601620FFF7C0FF62780146F4
S31508004A008A4218BF61700DD1501E8041C00F607078
S31508004A101620617801F07AFC6078401E8041C00F4C
S31508004A2060706178BDE81040162001F06FBC000088
S31508004A3014A8004080E100E026FB002020BC0040CE
S31508004A4000E100E008B2004008B40040002808BFB2
S31508004A5000F0ECBF21207047002800D0704710B541
S31508004A602B490C68608820B140F267212FA0FEF719
S31508004A70A5F8A188C9B2A01D00F096F80020A0806C
S31508004A80208010BD704780B50B46114620B91846E0
S31508004A9000F08AF8002002BD212002BDFBF71CBCED
S31508004AA0F0B51C4A1C4B14680FE0268810F8015B09
S31508004AB02644B57125881E886D1C95FBF6F706FBFE
S31508004AC017552580A5886D1CA5800D46691EEDB273
S31508004AD0E5B1A588114E37887F1EBD42E5DB104B30
S31508004AE0116818780F4A20B9098811802320187090
S31508004AF0F0BD12880A8023241C7048880A888242DE
S31508004B003DBF3488201A1018101A8880F0BD00009E
S31508004B10CCF40020DCF40020845000080875000856
S31508004B20B8FD0020BCFD002070477047756172749F
S31508004B302E630000002848BF4042704772B670478F
S31508004B4062B6704770B501F0C5F8AF4C204600F064
S31508004B5071FDD8B9204600F057FDFF28044615D048
S31508004B60AA480168085D851EE9B2204600F0F3FCF4
S31508004B700646E9B2204600F09FFC2146304600F082
S31508004B80F3F82046BDE8704000F079BB70BD0346D7
S31508004B900A469BA10420FFE70CB480B502AA00F0E0
S31508004BA03CF801BC5DF80CFB0A00034602D095A14F
S31508004BB01120F1E77047000080B586B0FDF77EFC4E
S31508004BC0302204920021924A0092672305910393AA
S31508004BD0029101910246002391A10120FFF7DCFF13
S31508004BE08C4881790288437903910292019301796D
S31508004BF0C3788278009142208CA1FFF7CDFF07B0D9
S31508004C0000BD000010B5044621467F4800F0E7FCC9
S31508004C102046BDE8104000F024BB2DE9F04F85B0D2
S31508004C2005460F46904601F042FB0024F0B900F015
S31508004C3032FFD8B1012000F0B8FAFF28824615D015
S31508004C40002100F0ADFA294601A800F034FF054618
S31508004C5087BB00F083F830B9504600F0A6FF10B1C4
S31508004C60042001F01DFB504600F009FB05B0BDE825
S31508004C70F08F8DF8041001251BE0644858F8046B82
S31508004C80006810F80A90F2B2FF2A12D0F1B210F8B2
S31508004C9001B00BEB0901C9B2504600F00DFC002823
S31508004CA0E1D1CDF800B00023F2B24946504600F0F3
S31508004CB064FC7F1C38780028CBD0A0F130010A2983
S31508004CC004D20A2101FB0404303CF2E700F046F85E
S31508004CD00028C8D139780025422901A80ED04429D0
S31508004CE01AD0462925D057290DD06229C5D066295C
S31508004CF02AD06C2925D0702926D0BAE758F8040B93
S31508004D008DF80400B7E758F8041B8DF8041002253F
S31508004D100904090E4170CCE758F8041B8DF80410F5
S31508004D200B0A0A0C090E437082708DF807100425C9
S31508004D30BFE758F8041B504600F072FB0028B8D0AD
S31508004D4091E758F8044BB4E758F8041BE2B250460A
S31508004D5000F064FB002808BF0024F0E72A4601A9F2
S31508004D60504600F05BBB00002DE9F043122885B0E1
S31508004D7080460D4609D03A281CD04FF6FE71884267
S31508004D8004BF284601F0ECFB32E02048224E0168B9
S31508004D904F5DFF2D2CD0F8B22128B4BF3C46202405
S31508004DA0284600F0F7F9E1B2FFF77AFE3068455D6C
S31508004DB0203FEEE7FEF72EF98146FDF7A3F90646F2
S31508004DC0FBF7DCFC0746FBF7D6FC0446FDF792F931
S31508004DD012490B6817A1CDF8109002460C480390AB
S31508004DE0588802900196009723463B20FFF7D4FE89
S31508004DF02946404605B0BDE8F04301F079BA0000FF
S31508004E00574600006C70000079F50020B4F40020C5
S31508004E10F0FC0020E8760008BCF40020ACFE002078
S31508004E20424238704242424257424200424242425D
S31508004E305742000057424257573870420000000058
S31508004E402DE9F04781460C4690469A4600F006F949
S31508004E50002801BF4E460FF22020815D012921D18D
S31508004E60DFF8E85155F82670FDF794FE0021B98061
S31508004E7039807980FDF79CFE05EB86000569FDF70C
S31508004E8089FE0021A98029806980DFF8C42191550F
S31508004E90FDF78EFE5346424621464846BDE8F04792
S31508004EA0FFF7D4BD2120BDE8F0872DE9F843044675
S31508004EB088462646DFF8941101EB8602176900F04A
S31508004EC0CDF808B1012040E0DFF88451A85D05EB74
S31508004ED0460968B1B9F804007988884208D1FDF70F
S31508004EE059FEAC5D0021A955FDF762FE20462CE06F
S31508004EF02046FFF719FEB88800281EBF0FF2841156
S31508004F0031F81640002C1FD0FDF744FE7988394445
S31508004F108A7988F800207988491C91FBF4F304FB08
S31508004F2013147C80B9884A1EBA80FDF741FEA85D35
S31508004F3040B1B9F804004FF6FF71884204BF3A88B9
S31508004F40A9F80420002000E02620BDE8F28300002E
S31508004F50B0F8040046A333F811108A1A904201DA11
S31508004F6001207047002070472DE9F8430E4600BF20
S31508004F7041A191460A5C012A804631D1334951F84C
S31508004F80205000BF3DA131F81040002716E0FDF77C
S31508004F9001FEA98801B901276CB12A883178AA18B7
S31508004FA091712988491C91FBF4F304FB131129809C
S31508004FB0A988491CA980FDF7FBFD761C4846A0F187
S31508004FC00109C0B278B1002241462846FFF7C0FF62
S31508004FD00028DCD117B14046FFF73EFD222000E04D
S31508004FE00120BDE8F2834046FFF736FD0020F8E7CA
S31508004FF080B5014620A2535C012B05D1134A52F80D
S31508005000212091880029FCD1FFF748FD002002BD28
S315080050100CB438B504460D46FFF734FD04AB2A46F2
S3150800502021460C4800F09EFB4FEA040012A10A5CD8
S31508005030012A07D1054951F82020908810B1204649
S31508005040FFF70AFD32BC00205DF80CFBCCF400200B
S31508005050B8FD0020874A000870470000042805DAD2
S3150800506005A1085C401E8041C00F704701207047AB
S3150800507040000000000000000100000040000000A1
S3150800508000000000400000000000000010B50446C3
S31508005090FDF780FD1A491B4B302008601860102266
S315080050A019491A4B08601A60200A0028184808BFD0
S315080050B024024FF20F0104804180BFF35F8F154829
S315080050C00022026042601448144A106010BD144859
S315080050D00168CA0708D5134B032119700121026C10
S315080050E052085200026401600268110703D5026C77
S315080050F022F00802026470470B48006870470000F7
S315080051003020004030C8004030C0004010E0004069
S31508005110000000201C4000400400FA050CED00E0E9
S3150800512018A00040EBFF002050F5002062F30F2284
S3150800513062F31F42401810F0030308D0C91A1FD3A0
S31508005140DB0748BF00F8012D28BF20F8022D130001
S3150800515030B414461546103928BF20E93C00FAD861
S31508005160490728BF20E90C0048BF40F8042D8900EC
S3150800517028BF20F8022D48BF00F8012D30BC704723
S31508005180C91818BF00F8012DCB0728BF00F8012D54
S3150800519070470000DFF8AC140A6802EB401070474D
S315080051A0DFF8A4241368195470472DE9F0415FEA23
S315080051B0000831D0FDF7EEFCDFF89024DFF89014F4
S315080051C01678DFF89054FF23FE2E19D10027DFF852
S315080051D08864DFF888C4177034782C7007E07C1C64
S315080051E00EF80740DCF800E00EF80730E7B234782E
S315080051F0D1F800E0A742F2DB0EEB040606F8013C04
S315080052002E7846450AD2FDF7D3FC052001F048F86A
S3150800521000211B2001F0A6F9FF2020E0A6EB0806D6
S315080052202E701578DFF838641778D6F800E0012470
S315080052300EF80740A8F10108D1F800C01CF807408D
S3150800524014705FFA88F4002CEED1DFF8FC230CF812
S315080052500730002113685955FDF7AAFC2846BDE812
S31508005260F08110B50446FDF795FCDFF8F4130968DC
S315080052700A5D521C0A55BDE81040FDF799BCF8B501
S31508005280044600F031F80546FDF784FCDFF8BC3328
S31508005290DFF8C073DFF8B8C3DFF8C4E301E02C46D3
S315080052A0FF25FF2C1CD022460FE0DCF80010895C95
S315080052B00026A6543C78641C3C70FF29DCF8006084
S315080052C01C78B4541A70EAD00A46DEF800108C5CD2
S315080052D0661E8E54DEF80040A15C11F07F0FE4D004
S315080052E0BDE8F240FDF764BC10B5DFF874130A6830
S315080052F0145C210605D5DFF84C2313684001185CB9
S3150800530010BDFF2010BD7CB504460D4605F11F00F3
S315080053100004400DC0B2FFF748FFFF2806460DD02F
S31508005320DFF8240301688D553CB1012000902B4617
S3150800533000223146204600F002F8304676BDF3B525
S31508005340054681B0DFF8000301681E469DF808305F
S31508005350CC5C1746F019844203DA4FF4B77100F0B3
S31508005360DFF830000CD0089C394602A800F0DCF8BB
S3150800537002469DF8081000943346284600F001F8C6
S31508005380F7BD2DE9F047089DDFF8C462DFF8B4A23F
S315080053908046894614461F460DE02900224612BF5C
S315080053A0414601464046FDF717FD30683F1BA044BD
S315080053B010F809900024F8B268B1DAF8000000EB9A
S315080053C049131819FBB2E1182029B2BFFCB2C4F17F
S315080053D02004E4B2E1E7BDE8F0872DE9FC41074681
S315080053E0DFF8640288460168CC5D15461E46291911
S315080053F0CBB2A34206DB28000DD0C9B2384600F06E
S315080054005BF808B1182007E000962B462246394675
S315080054104046FFF794FF0020BDE8F6810123DCE74C
S315080054200A4600E0521C1378002BFBD1521A0123BE
S31508005430D2B2D2E72DE9F041804601F11F0402F10C
S315080054401F00E404C004240E000E04B9012400B9A8
S31508005450012084422AD0DFF8F85119DA001BC0B2BD
S31508005460FFF7A3FE0746FF2808BF00201FD0641ECB
S3150800547000F01FF82E68305CFF2804D000F019F8F9
S31508005480305CFFF7FCFE00F014F829680F540DE0B5
S315080054908A420BD2411EC9B200F00CF804462868AD
S315080054A0005DFFF7ECFE2968FF2008550120BDE8DE
S315080054B0F081E1B2404610E070B5DFF88C613368E0
S315080054C005460C46595D2246FFF7B4FF18B1306809
S315080054D04455002070BD182070BD04E0DFF8702127
S315080054E01368185C491ECAB2002AF7D1704731B54D
S315080054F00C46DFF854110A68155CAC4203D340F237
S31508005500052100F00DF82146684600F00DF8DFF891
