S00F00006E6F6465746573742E7333377F
S3150000000098E7032081AA0100256C0000CDA9010014
S31500000010A70A02020002000004180FAC30670401B0
S3150000002000000000000000000000000000000000CA
S315000000300000000040C501000000000000000000B4
S315000000400000000000000000FFFFFFFFFFFFFFFFB2
S31500000050FFFFFFFFFFFFFFFFFFFFFFFFFFFFFFFFAA
S3150000006000E00F000000000000000000FFFFFFFF9F
S31500000070FFFFFFFF1C000000000000000000000062
S31500000080000000000000000078FF032078FF032036
S3150000009098E70320DEF201009AAA010038DE032069
S311000000A04C1100200000100000000000C1
S3150000020098E7032081AA0100256C0000CDA9010012
S31500000210F9BE0000D1A90100D5A901000000000027
S315000002200000000000000000000000008315000030
S31500000230D9A901004B150000731A00000F5E0000DB
S3150000024045C00000D7480100831A0000E1A901005B
S315000002509943010013490100DD480100DF48010010
S31500000260D94801002B2501007DE60000F5E80000D5
S3150000027033620000E1A90100E1A90100B1A7010074
S31500000280E1A90100E1A901008BE60000E1A9010056
S31500000290E1A90100E1A90100E1A90100E1A901002C
S315000002A0E1A90100E1A90100E1A90100E1A901001C
S315000002B015490100DB480100052A010045490100F6
S315000002C0E1A90100E5A90100E1A90100E1A90100F8
S315000002D0E1A90100E1A90100E1A90100E1A90100EC
S315000002E0E1A90100E1A90100E1A90100E1A90100DC
S315000002F0E1A90100E1A90100E1A90100E1A90100CC
S31500000300E1A90100E1A9010000000000502D1248FA
S31500000310816B89B201B1012141F67132826346F2E5
S315000003201A32036843F001030360C2644FF480731A
S3150000033043604269D307FCD44FF40072420C0018A4
S315000003400022C264C9B203685B085B00036001B1A6
S3150000035082630020704708000E40000070470000CE
S315000003602DE9F047DFF8184823A10FF260590FF284
S315000003706C5ADFF810880646207800F03DFE00270C
S31500000380AAA512E0294600F037FE0CE09368126831
S31500000390494600F031FE306800F0A8FAF2D00FF2BC
S315000003A0345100F029FE7F1CBFB2306800EB071203
S315000003B02078516849B14145E8D15169002918BFF3
S315000003C04145F0D012685146EBE700BF29A100F085
S315000003D013FE207831A100F00FFE20783BA100F03B
S315000003E00BFE207844A100F007FE20782946BDE8E0
S315000003F0F04700F001BE0000434F4D4D414E4420F2
S315000004005B504152414D45544552535D205B2D2072
S315000004104445534352495054494F4E5D0D0A2020DE
S3150000042077686572653A20623D6275666665722C0C
S315000004302073313D696E74385F742C2073323D69C8
S315000004406E7431365F742C2075313D75696E743863
S315000004505F742C2075323D75696E7431365F742C6D
S315000004602075343D75696E7433325F740D0A0D0A5A
S315000004700000000020202120202D20526563616CA1
S315000004806C73207468652070726576696F75732069
S31500000490636F6D6D616E640D0A00000020205B7451
S315000004A061625D202D20417474656D7074732074D3
S315000004B06F2074616220636F6D706C657465206374
S315000004C06F6D6D616E640D0A000000002020202013
S315000004D02A2A204E4F54453A20616C6C20696E7072
S315000004E075742076616C7565732061726520696E1E
S315000004F020686578210D0A00202020202A2A204322
S315000005006F6D6D616E647320617265204E4F54206D
S31500000510636173652073656E7369746976650D0A28
S3150000052000000000A0F141011A293CBF2030C0B2F2
S31500000530704700002DE9F84F8046DFF84C16D8F8D2
S31500000540080000680A68DFF83866C3B2002412F8AB
S3150000055003900025B9F1200F06DD307834A1BDE8FF
S31500000560F84F202200F048BDC0B200F065FD82467B
S31500000570A34607E01AF80B00FFF7D4FF0AF80B00B2
S315000005800BF1010BCB45F5DB4FEA090239A15046C9
S3150000059000F0C9FF30B9012504E0307837A13A46AA
S315000005A000F02AFDD8F800202101101D405800282F
S315000005B03AD0DFF8D0B5641C5845A4B2F2D15758EA
S315000005C0002DEAD1384600F0C1FF4845EAD14A4637
S315000005D05146384600F09CFF0028E3D140462546A8
S315000005E00FF2DC280FF2EC290FF2980A0446216874
S315000005F02F01081DC059B8B1584515D0C8198368D0
S3150000060002683078514600F0F7FC2068C019C268CD
S3150000061030781AB9414600F0EFFC02E0494600F096
S31500000620EBFC6D1CADB2E2E7BDE8F18F0D0A0000F0
S315000006304572726F723A206C6973742061726775C5
S315000006406D656E7420746F6F206C6F6E672C2077EB
S3150000065065206F6E6C7920737570706F727420757B
S315000006607020746F2025752062797465732E0D0ACB
S31500000670000000006D6F64756C65730025700D0ACF
S3150000068000000000257020257000000070B50446AB
S3150000069088B0A068016801B10121DFF8F054297023
S315000006A0406800B10120DFF8E864307016A001F060
S315000006B06DF9A068C16801B10121DFF8D824117075
S315000006C0006900B10120DFF8D01400BF18A308703C
S315000006D00493127891F800000FF25C0118A30592BA
S315000006E00790069101203278009376A1039002913B
S315000006F0019204F111012B780FF24C0214A001F0C3
S3150000070045F908B070BD00005475726E696E6720B9
S315000007106F66662074616773206E6F7420796574E6
S3150000072020737570706F727465640D0A00000000A6
S3150000073064656C696D0000007465787400000000E3
S31500000740636F6D6D616E640068656164657200005B
S315000007507B264E20566572626F73697479206F70BE
S3150000076074696F6E732073657420746F3A0D0A2670
S3150000077074750D0A2674750D0A2674750D0A26748D
S31500000780750D0A2674757D0D0A000000DFF80C143D
S31500000790007CDFF8EC3351F82020187801A100F036
S315000007A02BBC00004349204572726F723A202570B7
S315000007B00D0A000038B5DFF8C843207840A5294661
S315000007C000F01AFC94F800000CA100F015FC20784B
S315000007D0294600F011FC207811A100F00DFC2078CC
S315000007E039A100F009FC207810A100F005FC207862
S315000007F011A1BDE8344000F0FFBB0000456D626505
S3150000080072204E6F64652054657374204170706C5D
S3150000081069636174696F6E2076312E3000000000C6
S315000008204D617220323220323032300032303A306E
S31500000830383A3235000000000D0A0D0A00000000AB
S315000008402DE9F24F054692462E6B002712E01CA1B9
S3150000085000F0D2FB0BE08B681CA1C94C00F0CCFB6E
S31500000860286800F043F8F2D01AA100F0C5FB7F1CFF
S31500000870BFB21036706808B3D6F80080DDF8009075
S3150000088000240BE019F8010BFFF74CFE834618F81D
S31500000890010BFFF747FE8345E9D1641CA0B2504522
S315000008A0F0D3B74B286800EB071118784C68B54BA6
S315000008B00A689C42CFD100BF08A1D6E7BDE8F18FF8
S315000008C00D0A0000746167002C20000020202570AE
S315000008D020257000202D2025700D0A002D2D2D2D90
S315000008E0202570202D2D2D2D0D0A000000EB071060
S315000008F0C2682078002A70472DE9F043ADF5017DE6
S315000009000DF10400A6A14FF4807201F06FF84FF0CC
S3150000091000098DF80190A52001F0E9F801F030F901
S3150000092000F0E3F9002001F073FA804628B100F0E8
S31500000930D7F9002001F06CFA804600F0D6F90120C4
S3150000094001F066FA070005D000F0CAF9012001F0AF
S315000009505FFA074600F0C9F9022001F059FA0600CD
S3150000096005D000F0BDF9022001F052FA064601F06A
S31500000970DFFAB8F1000F824D0AD0002F64D0002EA6
S3150000098000F067804FF40171C5A001F0D7FA03E0CB
S31500000990002F18BF002E58D085F80090281D01F0B2
S315000009A004FC281DFFF706FFC1A628780FF20838B9
S315000009B000F0AAF928780FF2703100F01DFB6DA740
S315000009C000F0A5F9281D01F0CBFE00F09CF928786F
S315000009D00FF2603100F010FB00F099F9281D03F0CA
S315000009E03FFC00F090F928780FF2543100F004FB38
S315000009F000F08DF9281D03F051FC00F084F92878E9
S31500000A000FF2483100F0F8FA00F081F9281D03F0E2
S31500000A1067FC00F078F928780FF23C3100F0ECFA28
S31500000A2000F075F9281D03F070FC00F06CF92878C9
S31500000A30A3A100F0E1FA00F06AF9281D04F0FDFD1B
S31500000A404DA64EA741AC91E0002E64D0012028703F
S31500000A50A4E702212970A1E728780DF10103FF22FE
S31500000A6041A901F01EFA002846D001F03DF801F038
S31500000A7086F904F021F89DF8010010B341A9084455
S31500000A8010F8011C09291CD100F041F99DF801005C
S31500000A90411E8DF8011041A99DF80120281DFFF780
S31500000AA0CFFE9DF801100020605400F028F90020C8
S31500000AB004E000F01FF99DF80000401C00F008F962
S31500000AC0F7D39DF804012128C6D100F020F94A4643
S31500000AD001A941A800F0CEFCA9F101008DF80100A2
S31500000AE000F00DF9002000F0F3F8B5D200F002F99D
S31500000AF09DF80000401CF6E700218DF800109DF8D7
S31500000B000020A05C511C0A2818BF0D2818BF002819
S31500000B10F3D116E02E702878FF289CD1002669466E
S31500000B20F0B201F0B9F938B99DF800000D2818BFE8
S31500000B300A2818BF2A28EDD0761CF1B20329EEDB6D
S31500000B40E9E70D20A0548DF8001041A99DF800207A
S31500000B50281D01F037FB9DF8002041A901A800F0EF
S31500000B6089FC9DF8009000218DF8011000F0C7F86F
S31500000B7072E700005D0D0A00256300000D0A000003
S31500000B80E8E703205D03000084E80320EEEB032082
S31500000B90EFEB0320F0EB0320F1EB0320A8E90320A1
S31500000BA00D00000000000000000000000000000032
S31500000BB0000000000000000000000000000000002F
S31500000BC0000000000000000000000000000000001F
S31500000BD0000000000000000000000000000000000F
S31500000BE000000000000000000000000000000000FF
S31500000BF000000000000000000000000000000000EF
S31500000C0000000000000000000000000000000000DE
S31500000C1000000000000000000000000000000000CE
S31500000C2000000000000000000000000000000000BE
S31500000C3000000000000000000000000000000000AE
S31500000C40000000000000000000000000000000009E
S31500000C50000000000000000000000000000000008E
S31500000C60000000000000000000000000000000007E
S31500000C70000000000000000000000000000000006E
S31500000C80000000000000000000000000000000005E
S31500000C90000000000000000000000000000000004E
S31500000CA0706C6174666F726D746573742E63000088
S31500000CB05B494E49542000000D0A3E20000000000A
S31500000CC0736574506572546573745478000000003F
S31500000CD08DF800009DF801109DF8000088427047CD
S31500000CE0012300224FF416417047012300224FF4DE
S31500000CF0E1317047225C2878314600F07DB94146E3
S31500000D00287800F079B92878314600F075B9287846
S31500000D10394600F071B980B504F0F4FDBDE8024033
S31500000D200020E9E500207047696E6974546F6B65B1
S31500000D306E7300006372617368696E666F0000000F
S31500000D407265736574737472696E6700696E69742F
S31500000D50526164696F00000073656564506E726766
S31500000D600000000070B513461044DCB264B101F017
S31500000D700F060909451E0A2EACBF37243024A419D4
S31500000D8028462C705B1EF0E7104470BDF0B50023BA
S31500000D9041B1002806D52D2313700123B0F1004F71
S31500000DA018BF4042002100249AA5002601E0C01B7E
S31500000DB0761C55F82470B842F9D2F7B20FB90F0075
S31500000DC004D0D9B2303656545B1C0121641C092C60
S31500000DD0EBDBD9B2303050545B1CD8B2F0BD2DE9F4
S31500000DE0F84F824696B04FF0000914A88846174679
S31500000DF01D4604ACCB46019012E04FF0010B0746AE
S31500000E0000E004460198844209D39DF80020A41A04
S31500000E1000F0D4F8002851D159FA84F904AC7F1CAB
S31500000E2004A88DF800009DF800003978201A0029E2
S31500000E300FD0252905D05FEA0B0208BF04F8011B75
S31500000E40E0D05FEA0B0114BF4FF0000B7F1C39782E
S31500000E500A0000F0A680B1F1250216D00B3A092A45
S31500000E6040F28080283A75D00A3A12D0521E3CD001
S31500000E70521E57D0083A55D0121F39D0D21E37D03D
S31500000E80921E4FD0D21E65D0BCE7252004F8010B78
S31500000E90B8E729686A68039120460835029200245B
S31500000EA0029A9442ADD20399095D0222FFF75AFFD6
S31500000EB00199884206D300F085F800287AD159FABC
S31500000EC086F904A80299491E8C423CBF202200F8EC
S31500000ED0012B0199884206D300F074F8002869D1E5
S31500000EE059FA86F904A8641CDAE755F8040BCDE72D
S31500000EF055F8046B044600F061F800285AD159FAF7
S31500000F0084F9314604AC064600E0761CF0B2085C73
S31500000F100028FAD1F2B24046D04700284AD159FA01
S31500000F2086F96FE76C290AD17A7855F8040B752A89
S31500000F300EBF00210121642A07D17F1C05E0752917
S31500000F4055F8040B0CBF002101212246FFF71EFFB6
S31500000F50241857E755F8041B0222C9B22046FFF7AA
S31500000F6001FF4EE77878782818BF58284FF0010B14
S31500000F70EFD17F1C781E32294FF0000B04D155F8B3
S31500000F80040B81B20422E9E734297FF436AF55F821
S31500000F90046B0422310C2046FFF7E4FE0422B1B2B2
S31500000FA0DDE70546EAB200F00AF818B9A9445FFA87
S31500000FB089F000E0002017B0BDE8F08FE2B204A986
S31500000FC0404650479DF80020861AF2B204A94046D2
S31500000FD0504708A110E00CB438B5044604AA00F046
S31500000FE013F8054603A1204600F006F8284632BC51
S31500000FF05DF80CFB0D0A00000CB480B502AA00F0E7
S3150000100003F802BC5DF80CFB80B505F08FFBC0B29F
S3150000101002BD000000CA9A3B00E1F50580969800E3
S3150000102040420F00A086010010270000E8030000E0
S31500001030640000000A000000DFF808140A6802EBEA
S3150000104040107047DFF800241368195470472DE9E3
S31500001050F0415FEA000831D005F088FCDFF8EC23A8
S31500001060DFF8EC131678DFF8EC53FF23FE2E19D1C8
S315000010700027DFF8E463DFF8E4C3177034782C70D8
S3150000108007E07C1C0EF80740DCF800E00EF807309D
S31500001090E7B23478D1F800E0A742F2DB0EEB0406A3
S315000010A006F8013C2E7846450AD205F065FC052077
S315000010B005F09EFC00211B2005F03AFDFF2020E0F4
S315000010C0A6EB08062E701578DFF894631778D6F825
S315000010D000E001240EF80740A8F10108D1F800C08D
S315000010E01CF8074014705FFA88F4002CEED1DFF884
S315000010F058230CF8073000211368595505F03CFCBD
S315000011002846BDE8F081F8B5044600F031F80546FA
S3150000111005F02CFCDFF83433DFF83873DFF830C322
S31500001120DFF83CE301E02C46FF25FF2C1CD02246CD
S315000011300FE0DCF80010895C0026A6543C78641C9D
S315000011403C70FF29DCF800601C78B4541A70EAD0B1
S315000011500A46DEF800108C5C661E8E54DEF80040EF
S31500001160A15C11F07F0FE4D0BDE8F24005F004BCAD
S3150000117010B5DFF8EC120A68145C210605D5DFF815
S31500001180C42213684001185C10BDFF2010BD7CB559
S3150000119004460D4605F11F000004400DC0B2FFF7DE
S315000011A056FFFF2806460DD0DFF89C0201688D55D4
S315000011B03CB1012000902B4600223146204600F02B
S315000011C002F8304676BDF3B5054681B0DFF8780201
S315000011D0016817469DF808201E468B5CF419A34249
S315000011E003DA4FF4B77100F0E0F830000CD0089C39
S315000011F0394602A800F0DDF802469DF80810009472
S315000012003346284600F001F8F7BD2DE9F047089D62
S31500001210DFF83C62DFF82CA28046894614461F465A
S315000012200DE02900224612BF41460146404600F025
S3150000123021F930683F1BA04410F809900024F8B249
S3150000124070B1DAF80000214600EB4913581851FA3C
S3150000125087F12029B2BFFCB2C4F12004E4B2E0E772
S31500001260BDE8F0872DE9FC410746DFF8DC0188463A
S315000012700168CC5D15461E462919CBB2A34206DB92
S3150000128028000DD0C9B2384600F05BF808B1182026
S3150000129007E000962B46224639464046FFF793FF65
S315000012A00020BDE8F6810123DCE70A4600E0521C77
S315000012B01378002BFBD1521A0123D2B2D2E72DE9C3
S315000012C0F041804601F11F0402F11F00E404C0044E
S315000012D0240E000E04B9012400B9012084422AD04C
S315000012E0DFF86C5119DA001BC0B2FFF7B0FE0746F3
S315000012F0FF2808BF00201FD0641E00F01FF82E68CC
S31500001300305CFF2804D000F019F8305CFFF7FBFED4
S3150000131000F014F829680F540DE08A420BD2411EE2
S31500001320C9B200F00CF804462868005DFFF7EBFE32
S315000013302968FF2008550120BDE8F081E1B240464A
S3150000134010E070B5DFF80061336805460C46595D5C
S315000013502246FFF7B4FF18B130684455002070BD2F
S31500001360182070BD04E0DFF8E8201368185C491EF9
S31500001370CAB2002AF7D1704731B50C46DFF8C8105B
S315000013800A68155CAC4203D340F2052100F00DF863
S315000013902146684600F00DF8DFF8A8109DF80030E9
S315000013A00A6802EB4311084432BD0FF2B80000F0A0
S315000013B0C5BD38B504460D46C9042078090EFFF7A9
S315000013C0D1FF207005F01F0032BD80B5FFF7D4FFB6
S315000013D0007802BD10B51446FFF7CEFF047010BDAD
S315000013E0FDB5089C20000D461E461BD1F7BD154BCA
S315000013F09DF804001B6803EB4010C2F12002D2B234
S31500001400BA42B8BF174681199DF8000003EB401396
S315000014103A46581900F02EF8E41B7D19BE19A0B201
S3150000142000B9F7BDA9B26846FFF7C3FF0546B1B2DA
S3150000143001A8FFF7BEFF0646B542A7B2B4BF3246C3
S315000014402A46D4E780E8032084E80320FCEB032047
S315000014508CE80320F8EB0320F7EB032090E8032049
S3150000146088E803207061636B65742D627566666536
S31500001470722E630070B5814224D210441144401E7E
S31500001480491E10E011F8013900F80139121F11F850
S31500001490014900F8014911F8015900F8015911F8FC
S315000014A0016900F8016993B2042BEBDA93B2002BC1
S315000014B01EBF11F8013900F80139521EF6D170BD70
S315000014C000F00DF893B2042BFADA93B2002B1EBF8C
S315000014D011F8013B00F8013B521EF6D170BD11F820
S315000014E0013B00F8013B121F11F8014B00F8014BBC
S315000014F011F8015B00F8015B11F8016B00F8016B54
S315000015007047130003D00A46194605F01BBB704707
S3150000151010B5034600E0521E90B218B100F00FF865
S31500001520F9D0001B10BD10B5034600E0521E90B264
S3150000153020B100F004F8F9D0001B40B210BD13F83A
S31500001540010B11F8014BA0427047704700F10103EF
S31500001550810704D010F8011B820781B1FAD1026815
S31500001560A2F10131914311F0803104BF50F8042FEC
S31500001570F6E709BAB1FA81F100EBD100401CC01AB6
S315000015807047FEE738B50446651D206A2368451B8B
S315000015902079EAB2611D984708B1002032BD94F85F
S315000015A029002D18611D84F829502162012032BDC1
S315000015B038B50446002500E06D1CE8B2085C00283A
S315000015C0FAD120792368EAB2984730B994F829000D
S315000015D02D1884F82950012032BD002032BD2DE996
S315000015E0FF4B07460C46781D386207F115017962F4
S315000015F00020904687F82900DFF8C05315E02AB18D
S31500001600791D396201E01100F9D1044626B100F0D6
S315000016109DF97D2001F8010D386A796A884203D365
S3150000162000F09AF9002867D0641C2178002900F0A0
S315000016306B812529687818BF26290ED07B291CBF07
S315000016407D29232907D10028E6D03A6A521C3A623E
S3150000165002F8011DE0E7A878F5E714F8013F252B0D
S3150000166018BF262B04D100F071F901F8013DD3E72C
S3150000167026290BD150B101266E2B18BF4E2B11D047
S3150000168000F064F97B2001F8010D00E000262178C6
S3150000169000224E2906D0542923D06E2902D074295F
S315000016A01FD032E0287858F804BB0028B4D036B1F1
S315000016B0386A7B210170821C3A622823437000F04D
S315000016C04BF9002818D000F036F9002814D0002E67
S315000016D0A2D0386A29210170821C3A627D234370A8
S315000016E09AE700F037F9002806D000F024F9002820
S315000016F002D000F031F9002800F0828000F026F9CF
S315000017003A2001F8010D0122641C207894F801E0CA
S31500001710A0F13003DBB2981E052835D2BEF1640F66
S3150000172018BFBEF1750F2FD158F8040B012180B2F6
S31500001730BEF1640F4FF0000C814606D15FEA004E01
S3150000174003D5C043401C8C4680B248B14FF00A0E08
S3150000175090FBFEF080B200280CF1010CF6D10BE0F4
S315000017600CF1010C08E0D7F820E00EF1010EC7F8E5
S3150000177020E020200EF8010D604600F1010CC0B2F9
S315000017809842F0DB641C00E0002194F800C0601E63
S31500001790BCF1000F3FF437AFBCF1320F18BFBCF1FC
S315000017A0340F00F08D80BCF1480F0AD0BCF1580F01
S315000017B016D0BCF1630F15D0BCF1640F24D0BCF178
S315000017C0680F72D0BCF16C0F51D0BCF1700F18BF0E
S315000017D0BCF1730F0DD0BCF1750F15D0BCF1780FAD
S315000017E065D00CE7386A411C396258F8041B017051
S315000017F00CE700F0AFF818B100F09DF80028F7D11B
S31500001800002004B0BDE8F08B002912BF1FFA89F052
S3150000181058F8040B80B228B900F098F8302001F887
S31500001820010DF3E60023BCF1640F0ED101040CD5C3
S315000018303A6A521C3A622D21B0F5004F02F8011D9A
S3150000184003D0404280B2002866D04FF00A0C90FBCD
S31500001850FCFC0A2101FB1C00D9B25B1C0DF801003F
S315000018601FFA8CF0EFE7D8B200F078F854E058F899
S31500001870040B0028D0D0002200280AD500F066F814
S315000018802D23B0F1004F01F8013D02D0404200285F
S3150000189048D00A23B0FBF3F30A2101FB1300D1B2AF
S315000018A0521C0DF801001846F1E700F047F8022235
S315000018B058F8041B386AC9B2FFF754FA3862A5E62D
S315000018C014F8010F682818BF48280BD100F036F825
S315000018D014F8011C386A32290AD158F8041B04226C
S315000018E089B2E9E7782818BF5828F1D0641E8DE63A
S315000018F058F804BB04224FEA1B41FFF733FA38625B
S3150000190004221FFA8BF1D7E700F026F800283FF4EF
S3150000191077AF97F8290074E71846431EC0B200282F
S31500001920A1D173E61046421EC0B20028F9D0D0B24B
S3150000193000F014F8F6E75946384639E6386A302199
S315000019400170821C3A62782343707047396A491CD9
S315000019503962704758F804BB384613E6396A1DF8F1
S315000019600000491C3962303001F8010D70470EB491
S3150000197010B5134A014610788BB0002428B1114ADD
S3150000198000F013F800B9012420460AE00EB410B5A1
S315000019900C4A8BB0014600F008F8002400B9012477
S315000019A020460BB010BC5DF810FB0748137800907A
S315000019B08DF804300DAA684611E60000EFEB03200F
S315000019C0EEEB0320E8E703205967000062B38B07BC
S315000019D008D0521E11F8013B00F8013B00F02480AC
S315000019E08B07F6D1830740F0208000BF103A07D35B
S315000019F030B4B1E83810103AA0E83810F9D230BC4B
S31500001A00530724BFB1E80810A0E8081044BF51F8F6
S31500001A10043B40F8043BD20724BF31F8022B20F8E0
S31500001A20022B44BF0B7803707047121F17D35B005D
S31500001A3009D151F8043B20F8023B1B0C121F20F879
S31500001A40023BF6D20BE051F8043B00F8013B1B0ABF
S31500001A5020F8023B1B0C121F00F8013BF3D238BFE3
S31500001A60121D521E24BF11F8013B00F8013BF8D8A5
S31500001A707047FEE7890001EB401101F184410868D7
S31500001A80704705F0CFB800007FB50121334805F057
S31500001A90B1F901220121012005F072FC0421072081
S31500001AA005F0B4FD33A292E838006946032281E8C6
S31500001AB038000D218DF8081001268DF809208DF8C3
S31500001AC000608DF807606946254C204605F02EFE1D
S31500001AD02449042008600222234962620860A26A3F
S31500001AE042F00202A2627FBD1D4805F013BEA52882
S31500001AF003D100211A4805F0F4BD70471848006864
S31500001B0000F001007047194908680028FCD17047A9
S31500001B1038B504460D4600F016F804F00F010346EA
S31500001B2024052A46200E01B0BDE8304005F0ADBEC2
S31500001B3000F00F010005000E30220D4B50431A181D
S31500001B4002F11C0096E700F00F010005000E30229E
S31500001B50074B50431A1802F10C008BE730253E0064
S31500001B600020054080E200E000E100E0082005409A
S31500001B7000A0004001000000000000010F0000006E
S31500001B8080B50121894805F035F9894801210160B0
S31500001B90002005F036FE012304220221052005F06F
S31500001BA074FE012004F0EEFE00F00FF804F01BFFB7
S31500001BB005F061FF01234022DFF8F81190A005F03F
S31500001BC025FF7D490860C00F02BD70B501220121C5
S31500001BD0042005F0D5FB7948794C0168794D7A4E99
S31500001BE041F0010101600021C26842F08072C260CA
S31500001BF002227648206029603160754875490A607E
S31500001C0005F02FF97449754A754B0818B0FBF2F0C8
S31500001C10401E1860002129644FF480727148724991
S31500001C2020653160714802602B6843F480732B6035
S31500001C3070BD80B564480168CA070ED56C490B684B
S31500001C4023F440630B60016849084900016002689B
S31500001C501102FCD4642005F02AFF00220021042092
S31500001C6005F08EFB5B49614B002008601860534904
S31500001C70086001BD5148006800B10120C0B270473C
S31500001C80D12202704170090A81705A490A78C270DD
S31500001C900420521C0A7070472DE9F14F5649DFF8AF
S31500001CA05CA10A68DFF81C81444E82B000250090D2
S31500001CB04FF6FF79145C05F06BFF641DE4B20190EA
S31500001CC01FE0A91E9DF80800C9B2FFF77EFB074674
S31500001CD0494605F085FF81465D463B480168CA07CF
S31500001CE00FD5F06840F08070F060D8F8001041F42D
S31500001CF08071C8F80010DAF800000028F1D08AF8E0
S31500001D0000703168EFB249B3A74227DA05F040FF09
S31500001D100199401A80B240F2F51290421EDAE8B2FA
S31500001D2010B95B270125D8E7012805D13248009A6A
S31500001D3001688F5C0225D0E7E01E874205F1010BA2
S31500001D4008BF4F46C8D0A11E8F4208BF4FEA1927C9
S31500001D50C2D0601E8742B4D15D27BDE7A7420CBF43
S31500001D6000200120BDE8FE8F10B523490A68145CE7
S31500001D70042C01DA012010BDBDE810408CE710B537
S31500001D800D4B186890B04022694605F029FE58B1FF
S31500001D90C1B26846FFF7FBF904462146122005F05A
S31500001DA0EDFF2046FFF7AFF910B010BD00350A0071
S31500001DB010881442A0F603207CE80320F0ED00E032
S31500001DC0B00F00E0000E00E0800E00E055CEACC57E
S31500001DD006000E00F00004E0FCAC0600F8590D0009
S31500001DE0100004E0FF0300400D000100040304E0BE
S31500001DF0001000E070FF032084E80320200000E0CC
S31500001E0073696C6162737675617274646F776E0064
S31500001E102DE9F04104469046012522008AB00F467E
S31500001E201E4606D0012C1DD0102C02D0202C19D015
S31500001E301FE0002104F063FA0546012C18BF202C90
S31500001E4008D0022C18BF212C04D0032C1CBF222C36
S31500001E50232C1BD1012E0197ADF80C800BD14FF42A
S31500001E6080500CE04FEA0D0027A12822FFF7BEFDA7
S31500001E70E3E701200BE0022E03D14FF44050ADF80A
S31500001E800A006946204604F03AFA0546E8B20AB066
S31500001E90BDE8F08104F0F9BA80B504F001FBC0B2E8
S31500001EA002BD80B504F04BFBC0B202BD7CB5044652
S31500001EB000200D4616468DF8000001E0FFF714FEDF
S31500001EC06B46324629462046FFF7EBFF0028F5D140
S31500001ED076BD80B504F0BAFBC0B202BD80B504F091
S31500001EE0D1FCC0B202BD0CB480B50A46014602ABB5
S31500001EF00348FEF774FF02BC00205DF80CFB0000EF
S31500001F0023680000704700000000014000C2010085
S31500001F1000000010000000000300020003000000A3
S31500001F2000000000000000001E1E0000100010004F
S31500001F30002080F31188704742DE704738B50446AA
S31500001F400D4606F03FFDFFF7CFFD07F07CFC294666
S31500001F50204605F057FE2B464FEA040276A10120E3
S31500001F60FFF7C1FF29462046BDE83440E4E769484B
S31500001F702DE9F843684E0168B1654FF42068026A9E
S31500001F806649F2650B68336649687166426AB266ED
S31500001F90816AF166C26A3267016B7167806B96F877
S31500001FA03810B06748074CBF346CF46B07F06CFC14
S31500001FB0002232658442DFF868E1014624BFAEF1B3
S31500001FC02007A742A146716506F19002554BDFF83E
S31500001FD058C118D3A0697064E469B464B56DC5F3DB
S31500001FE00805062D13D1604511D398420FD20088FB
S31500001FF04DF64264A0420AD17068B468506094609D
S3150000200040F2017803E000247464B46481464748D2
S31500002010814238BF0146084670456AD20C68B4F161
S31500002020CD3F08BF091DF6D063E0062C09D1C4B226
S31500002030002C0CBF0520401E06F17C04C5B244F8F6
S315000020402510F14520D25EF8041D6145F9D3994269
S31500002050F7D2CC07F5D5002406F17C0555F8247097
S315000020608F42E2D0641C062CF8D3DEE7F16F002322
S3150000207006F17C0506EB8304D4F8804045F823403E
S315000020805B1C042BF6D911600146481EC9B2002913
S31500002090ECD1B06DC0F30800032810D0042811D08D
S315000020A0052812D0062813D00C2817D0122818D1CC
S315000020B01F480268910719D540F2025816E040F60B
S315000020C0012813E040F6022810E040F603280DE050
S315000020D0B8F5206F0AD140F6042807E040F6052837
S315000020E004E018B1432838BF40F607284046BDE84B
S315000020F0F2831049081AF0640021002006F17C04DE
S31500002100C5B2401CC7B244F82510062FF8D30020EC
S3150000211097E7000004ED00E00000002000E300E087
S3150000212098E703209AAA01005C0300009C000020A7
S315000021301C20054098E703200D0A5B415353455286
S31500002140543A25703A25645D0D0A00002DE9F843DE
S315000021508146DFF8C403016811F8095000260027FC
S31500002160E90748BF00201ED400240FF2D448E0B28D
S31500002170A84213DAE1B24846FFF727F918F800201B
S3150000218002F00F02E00758BF170105D53A43F1B236
S315000021904846FFF71FF9761C641CE8E7F1B248468B
S315000021A0FEF750FF0120BDE8F28300F12401FF2273
S315000021B08A700023C373C3830B7083730068C8607F
S315000021C0704700002DE9F74F82B0054600208DF8D4
S315000021D0010005F1240608E0687B70720122EA73AB
S315000021E029469DF8000000F0A9F90398002700246D
S315000021F060BB9DF810006946FFF74EFE002839D0F7
S31500002200262826D00121284600F08AF978208DF864
S315000022100000A046102700218DF80110E97B08294F
S31500002220E3D8DFE811F00A004B008E00EA00EA006E
S3150000223041014D01AD009E00D7E7102FCCD09DF88F
S315000022400000232836D10821E973CEE79DF8100057
S3150000225020B99DF8010005B0BDE8F08F0398401C39
S31500002260039010F8011D9DF810008DF80010411E16
S315000022708DF81010A0469DF8000067280FD29DF833
S3150000228000100FF2BC30405C00F0300700F00F0881
S31500002290400607D5717A884504DA012402E07B28D6
S315000022A038BF10279DF800000A2818BF0D28B2D1A4
S315000022B00121B1E7202F98D0032027E1102F1CBF62
S315000022C09DF800005F2800D01CB130780C28F3DAA6
S315000022D086E7202F18BF302F3FD1327805F1110144
S315000022E0002088544FF00009F06801900DE01AF8BC
S315000022F0010B00F01CF91BF8011B81420CD0019860
S3150000230000F1100109F1010901910199486820B312
S31500002310D1F800A005F1110B9BF800000028E6D1CA
S315000023209AF800100029EAD1A5F81E90F068E98B0A
S3150000233000EB0112002190682862A9733170022215
S31500002340EA73002C687B70722FD02B203072C6F88F
S3150000235004800421687B707276E70321284600F02A
S31500002360DFF89DF80100002809D0287C20B16968B3
S3150000237028468847002028742846FFF716FF34E7CA
S315000023809DF8010018B1284600F0E4F8F4E79DF83E
S315000023900000232805D1284600F0DCF80820E87361
S315000023A023E7202FFCD00420B0E09DF800002D2864
S315000023B018BF2B2804D13072002171600321C9E7B0
S315000023C022280AD10120FEF742FEFF28B0700BD06A
S315000023D00021FEF737FE0520E1E77B28D0D101205A
S315000023E0FEF735FEFF28B07000F08F800021FEF763
S315000023F029FE10207072062126E744B17068717AB2
S31500002400042201FB0088EA73C6F80480EDE69DF815
S315000024100000782818BF582804D1706810B9102118
S315000024207172E2E69DF80000742818BF542803D1A3
S31500002430706808B90A21F3E7032956D0202F18BF80
S31500002440302F52D1296A08784A78337A71682D2B51
S3150000245008BF4942752808D1342A1AD00020312AEB
S3150000246014BF4FF6FF72FF220FE0732808D1312AFE
S3150000247007BF6FF07F007F22284847F6FF7204E00F
S315000024800421284600F04CF86BE78142A8BF8A4237
S3150000249008DB0222284600F07CF80028F4D002204F
S315000024A0E8734EE70621ECE79DF8000022281ED1CE
S315000024B00021284600F082F80028B2D002206EE7FC
S315000024C09DF800007D280DD1B078FFF73FFE044649
S315000024D00121284600F072F808B10220E873002CAA
S315000024E09FD102E0202F9CD00CB907200EE00A49AC
S315000024F0B0780A68145CFF2C08BF082006D00122B9
S315000025006946FEF7D0FE00288BD002208DF8000029
S315000025109DF8001022E7000084E803200080FFFFFA
S31500002520027C1AB90823C37301745DE07047A0F1F9
S3150000253041011A293CBF2030C0B2704738B50C465D
S3150000254094F82450FFF7F3FF61196D1C487484F862
S31500002550245031BD10B50446216A087830B162288E
S315000025600CBF01200220085C2A2807D1216BE28BD0
S3150000257001EB021320465968884706E004202074C0
S31500002580204661688847002020742046BDE8104038
S315000025902AE010B5837B047BA34201D105211FE00D
S315000025A0846844F82310817B491C8173016A8B5C23
S315000025B02A2B1CBF89180162012010BD10B500F13D
S315000025C0200213681C78622C01D0042108E093795C
S315000025D0FF2494710122BDE8104003EB0121D8E7E6
S315000025E0FFF79EFF002010BD70B50446206BE18BFF
S315000025F000EB011200269568A17BF0B2884212D248
S315000026002878622818BF022007D1A168F2B251F8D3
S315000026102200C0B2FEF777FD0120295C2A2918BFE7
S315000026202D18761CE8E70020A07394F82600FF28F2
S3150000263004D0FEF768FDFF2084F8260070BD000078
S3150000264000000000000000000020202020200000E4
S315000026500000000000000000000000000000000074
S315000026602000303000000000000000300030000084
S3150000267040414243444546474849000000000000A7
S31500002680005A5B5C5D5E5F10101010101010101089
S315000026901010101010101010101010300000000054
S315000026A0005A5B5C5D5E5F002DE91040DFF868470D
S315000026B005A12078FEF7A0FC94F8000006A1BDE86D
S315000026C01040FEF799BC0000286C6974746C652094
S315000026D0656E6469616E00002C20616C6C2064611B
S315000026E0746120726570726573656E7465642061CD
S315000026F0732062797465206172726179290D0A000E
S3150000270001460878A0F130030A2B38BF30380AD3C7
S31500002710A0F14103062B38BF373804D3A0F161027C
S31500002720062A02D25738000100E000204978A1F1BC
S3150000273030030A2B02D2401830380EE0A1F14103D3
S31500002740062B02D24018373807E0A1F16102062AAB
S3150000275039BF401857380006000FC0B27047000056
S3150000276010B507F09BF8020018D0DFF8AC462078C9
S31500002770042A08BF0FF2280107D0062A08BF0FF265
S315000027806C0102D0072A03D129A1FEF735FC02E02D
S3150000279039A1FEF731FC207844A190E710BD000076
S315000027A068616C537461636B496E6974546F6B65D1
S315000027B06E73204641494C4544207769746820452C
S315000027C04D4245525F454550524F4D5F4D46475F1E
S315000027D0535441434B5F56455253494F4E5F4D4903
S315000027E0534D415443480D0A0000000068616C5384
S315000027F07461636B496E6974546F6B656E732046C2
S3150000280041494C4544207769746820454D424552FC
S315000028105F454550524F4D5F4D46475F56455253B3
S31500002820494F4E5F4D49534D415443480D0A0000F0
S3150000283068616C537461636B496E6974546F6B6540
S315000028406E73204641494C4544207769746820459B
S315000028504D4245525F454550524F4D5F535441439B
S315000028604B5F56455253494F4E5F4D49534D415468
S3150000287043480D0A0000000068616C537461636B85
S31500002880496E6974546F6B656E73204641494C45B9
S3150000289044207769746820456D626572537461746B
S315000028A075733A2025580D0A00000000546F6B65B9
S315000028B06E7320617265207374696C6C2061637439
S315000028C0697665207768656E207573696E67207412
S315000028D0686973206170706C69636174696F6E2ECC
S315000028E00D0A00002DE9F84FC0B08068DFF82875A2
S315000028F00568FFF7D9FEA8B207F041F88046A8B2EE
S3150000290007F010FA0446A8B207F0EEFA8346002C48
S3150000291038781ABF4FF6FF7290450FF2045128D04F
S315000029202346AAB20FF2D811FEF766FB00250FF276
S3150000293070290FF2702A06E000F01CF8761CF0B23F
S31500002940A042F9DB6D1CE8B2584510DABBF1010F65
S31500002950234603D17F2201F09DF906E0EAB201F099
S3150000296099F938785146FEF747FB0026E7E73878AD
S3150000297051465BE01DF8002038784946FEF73CBB1F
S315000029802DE9F84F0446C0B0A168DFF88C740E68D4
S31500002990B0B207F0C7F98046B0B206F0F0FF834642
S315000029A0B0B207F0A1FA0646B8F1000FAFA006D103
S315000029B004F11101FEF7EAFF0FF2B42135E04FF6FC
S315000029C0FF72934504F1110104D1FEF7DFFF0FF208
S315000029D0C4212AE0FEF7DAFF97F8000016A1424666
S315000029E0FEF70AFB00240FF2B8190FF2B81A06E038
S315000029F0FFF7C0FF6D1CE8B24045F9DB641CE0B28E
S31500002A00B04211DA012E434604D17F22594601F025
S31500002A1042F907E0E2B2594601F03DF938785146ED
S31500002A20FEF7EAFA0025E6E708A13878FEF7E4FAA9
S31500002A3041B0BDE8F08F00007B73697A653A256482
S31500002A407D7B76616C75653A000000007D7D0D0A20
S31500002A50000000002DE9F047C0B0806807684468B0
S31500002A60DFF8B463FFF720FEB8B207F05BF98046E3
S31500002A70B8B206F084FF8146B8B207F035FA0546CB
S31500002A80B8F1000F30781ABF4FF6FF7291450FF27A
S31500002A90903130D0A5F1010A15B1E1B28A450BDAC1
S31500002AA00FF28831FEF7A8FA30780FF2B8315346A4
S31500002AB00022FEF7A1FA20E04346BAB210A1FEF7C3
S31500002AC09BFA012D08BF7F244346E2B2494601F036
S31500002AD0E2F834A530782946FEF78EFA002430A7AE
S31500002AE004E01DF8012001F0E3F8641CE1B230783F
S31500002AF04145F6DB2946FEF77FFA40B0BDE8F08790
S31500002B005B2532785D28256429203D002DE9F847AC
S31500002B10C1B08068C04F0668FFF7C6FDB0B207F0C7
S31500002B2001F98046B0B206F02AFF8246B0B207F03D
S31500002B30DBF9B8F1000F1CBF4FF6FF718A45064658
S31500002B4005D138780FF2D821FEF756FA27E000248F
S31500002B500FF234391FE016FB08F338785B1E08FBCA
S31500002B6004524946FEF748FA387803226946FFF7C9
S31500002B709DF96846FFF7C4FD01A948556D1C4545FA
S31500002B80E9DB012E434601AA14BFE1B27F2150467C
S31500002B9006F0C4FE641CB442B8BF0025EFDB61E05A
S31500002BA0202558000D0A00002DE9F0470646C2B060
S31500002BB0B0689A49076840680A688DF80400B8B298
S31500002BC09DF80430D45C07F0ADF80546B8B206F0BF
S31500002BD0D6FE8246B8B207F087F9814628008E4FA6
S31500002BE00FF2880804D100F0BDF800BF20A136E03E
S31500002BF04FF6FF718A4503D100F0B4F825A12EE007
S31500002C00EA2D05DD00F0AEF85FF0EA022BA106E042
S31500002C10AC4208D000F0A6F84FEA05023AA138788F
S31500002C20FEF7EAF91EE0002000902B469DF80410FE
S31500002C30002202A8FEF7C7FA0024E0B248450BDAE4
S31500002C40B9F1010F2B4602AA14BFE1B27F2150460B
S31500002C5006F064FE641CF0E700F084F83DA13878C5
S31500002C60FEF7CAF942B0BDE8F08700007B264E00A9
S31500002C707B72657475726E3A317D7B746F6B656EAF
S31500002C802073697A65206973207A65726F7D7D0D80
S31500002C900A0000007B72657475726E3A317D7B693D
S31500002CA06E76616C696420746F6B656E2061646416
S31500002CB0726573737D7D0D0A000000007B7265747A
S31500002CC075726E3A317D7B6F6E6C7920746F6B65B1
S31500002CD06E73206F662073697A6520757020746F35
S31500002CE0202564422061726520737570706F72745E
S31500002CF06564206279207468697320636F6D6D6105
S31500002D006E647D7D0D0A00007B72657475726E3A85
S31500002D10317D7B74686520656E74657265642062BA
S31500002D20756666657220646F6573206E6F74206DBC
S31500002D3061746368207468697320746F6B656E27AD
S31500002D40732073697A652028256442297D7D0D0AE2
S31500002D50000000007B72657475726E3A307D7D0DE1
S31500002D600A00000006F111014046FEF70FBE000002
S31500002D702DE9F847C1B0806804684668DFF8D85D79
S31500002D80FFF792FCA0B206F0CDFF8046A0B206F097
S31500002D90F6FD8246A0B207F0A7F80446B8F1000F88
S31500002DA028781CBF4FF6FF72924503D11CA1FEF78F
S31500002DB023F930E0671E14B1F1B28F420ADA00BF80
S31500002DC01AA1FEF719F9287826A13B460022FEF73C
S31500002DD013F920E000270FF2B00911E02878A8F1D6
S31500002DE001033A464946FEF707F928780322694661
S31500002DF0FFF75CF86846FFF783FC01A9C8557F1CFE
S31500002E004745EBDB012C08BF7F26434601AAF1B2FA
S31500002E10504606F083FD25E7E8E7032084E8032013
S31500002E206E6F7420666F756E640D0A004552524FC0
S31500002E30523A204465736972656420696E646578E8
S31500002E40206973206F7574206F662072616E6765E6
S31500002E5020666F72207468697320746F6B656E0DDF
S31500002E600A0000002020202020202056616C696482
S31500002E702072616E67652069732025582074687218
S31500002E80752025580D0A000064617461206279740A
S31500002E90655B2564206F662025645D3A00000000AE
S31500002EA02DE9F043A5B0DFF8B05CDFF8B09CFFF782
S31500002EB0FBFB28784EF24552FFF75FFD2878DFF8D6
S31500002EC0A01CFFF706F8DFF89C0C0188082300F029
S31500002ED0E7FE0024E1A700F0E7FE00F0CFFEFAD3FC
S31500002EE00FF27C3800F0E7FE28784CF25632FFF7F6
S31500002EF044FD2878DFF8701CFEF7EBFF0124DFF8AD
S31500002F006C0C00F0CBFE9DF8002000F0D0FE9DF882
S31500002F10012000F0CCFE641EF1D100F0CCFE287832
S31500002F204EF24532FFF729FD28780FF65841FEF795
S31500002F30D0FFDFF83C0C0188082300F0B1FE00F05A
S31500002F40B3FE00F09BFEFAD300F0B5FE28784EF6ED
S31500002F507352FFF712FD28780FF63C41FEF7B9FFD2
S31500002F60DFF8100C0188102300F09AFE002400F010
S31500002F709BFE00F08BFEFAD300F09DFE28784CF203
S31500002F804E22FFF7FAFC28780FF61841FEF7A1FF4C
S31500002F90DFF8E40B0188102300F082FE002400F025
S31500002FA083FE00F073FEFAD300F085FE28784CF617
S31500002FB04412FFF7E2FC28780FF6F831FEF789FF96
S31500002FC00124DFF8B80B00F069FE9DF8002000F040
S31500002FD06EFE9DF8012000F06AFE641EF1D100F03D
S31500002FE06AFE28784DF24302FFF7C7FC28780FF6F1
S31500002FF0D431FEF76EFF0124DFF8840B00F04EFE9D
S315000030009DF8002000F053FE9DF8012000F04FFED1
S31500003010641EF1D100F04FFE28784CF24312FFF700
S31500003020ACFC28780FF6AC31FEF753FFDFF8900CB6
S3150000303001880223E2B200F02EFE9DF8002000F087
S3150000304036FE9DF8012000F032FE641C60B21428A2
S31500003050ECDB00F030FE28784DF64322FFF78DFCBE
S3150000306028780FF68031FEF734FFDFF8580C018818
S31500003070012300F015FE9DF8002000F018FE00F078
S315000030801AFE28784DF64822FFF777FC28780FF6C7
S315000030906C31FEF71EFFDFF8300C0188012300F0CB
S315000030A0FFFD9DF8002000F002FE00F004FE2878E7
S315000030B04DF65222FFF761FC28780FF65831FEF7DD
S315000030C008FFDFF8080C0188102300F0E9FD002452
S315000030D000F0EAFD00F0DAFDFAD300F0ECFD287806
S315000030E04DF24E32FFF749FC28780FF64831FEF7CD
S315000030F0F0FEDFF8DC0B0188102300F0D1FD002480
S3150000310000F0D2FD00F0C2FDFAD300F0D4FD28781D
S315000031104DF24632FFF731FC28780FF62C31FEF7D8
S31500003120D8FE0124DFF8AC0B00F0B8FD9DF80020B6
S3150000313000F0BDFD9DF8012000F0B9FD641EF1D13F
S3150000314000F0B9FD28784CF24332FFF716FC2878D8
S315000031500FF60C31FEF7BDFE0124DFF87C0B00F004
S315000031609DFD9DF8002000F0A2FD9DF8012000F0D5
S315000031709EFD641EF1D100F09EFD28784CF6535258
S31500003180FFF7FBFB28780FF6B431FEF7A2FEDFF857
S315000031904C0B0188082300F083FD00F085FD00F04C
S315000031A06DFDFAD300F087FD28784CF25432FFF714
S315000031B0E4FB28780FF69831FEF78BFE0124DFF842
S315000031C0200B00F06BFD9DF8002000F070FD9DF8CF
S315000031D0012000F06CFD641EF1D100F06CFD287832
S315000031E04DF65402FFF7C9FB28780FF67031FEF74B
S315000031F070FE0124DFF8EC0A00F050FD9DF8002077
S3150000320000F055FD9DF8012000F051FD641EF1D13E
S3150000321000F051FD28784CF65442FFF7AEFB2878B3
S315000032200FF64431FEF755FEDFF8BC0A018801238C
S3150000323000F036FD9DF8002000F039FD00F03BFD62
S3150000324028784DF25702FFF798FB28780FF62831B9
S31500003250FEF73FFEDFF8940A04E000BF2025580081
S315000032600D0A00000188102300F01AFD00F01CFD75
S3150000327000F00CFDFAD300F01EFD28784CF2573210
S31500003280FFF77BFB28780FF60431FEF722FEDFF806
S31500003290600A0188042300F003FD002400F004FD09
S315000032A000F0F0FCFAD300F006FD28784CF65752F1
S315000032B0FFF763FB28780FF6E821FEF70AFEDFF832
S315000032C0340A0188042300F0EBFC002400F0ECFC37
S315000032D000F0D8FCFAD300F0EEFC28784DF25752F5
S315000032E0FFF74BFB28780FF6CC21FEF7F2FDDFF84F
S315000032F0080A0188042300F0D3FC002400F0D4FC63
S3150000330000F0C0FCFAD300F0D6FC28784CF2574205
S31500003310FFF733FB28780FF6B021FEF7DAFDDFF86A
S31500003320DC090188042300F0BBFC002400F0BCFC8F
S3150000333000F0A8FCFAD300F0BEFC28784CF24B2231
S31500003340FFF71BFB28780FF69421FEF7C2FDDFF886
S31500003350B0090188102300F0A3FC002400F0A4FCAF
S3150000336000F094FCFAD300F0A6FC28784CF2423226
S31500003370FFF703FB28780FF67C21FEF7AAFDDFF89E
S31500003380840901885C2300F08BFC002400F08CFC8F
S31500003390641CE0B25C28F9D300F08DFC28784CF66A
S315000033A04312FFF7EAFA28780FF65821FEF791FD47
S315000033B0DFF854090188142300F072FC002400F0A1
S315000033C073FC641CE0B21428F9D300F074FC28786E
S315000033D04DF24332FFF7D1FA28780FF64021FEF777
S315000033E078FD0124DFF8240900F058FC9DF8002040
S315000033F000F05DFC9DF8012000F059FC641EF1D13F
S3150000340000F059FC28784DF24232FFF7B6FA2878D8
S315000034100FF61C21FEF75DFDDFF8F4080188102386
S3150000342000F03EFC00F040FC00F030FCFAD300F067
S3150000343042FC28784CF24532FFF79FFA28780FF6BF
S315000034400C21FEF746FDDFF8CC080188942300F036
S3150000345027FC002400F028FC641CE0B29428F9D371
S3150000346000F029FC28784DF25832FFF786FA2878C2
S315000034700FF6EC11FEF72DFDDFF89C0801882023DE
S3150000348000F00EFC002400F00FFC00F0F3FBFAD372
S3150000349000F011FC28784DF25932FFF76EFA2878C1
S315000034A00FF6D811FEF715FDDFF870080188202306
S315000034B000F0F6FB002400F0F7FB00F0DBFBFAD38C
S315000034C000F0F9FB28784CF64B22FFF756FA2878DD
S315000034D00FF6C411FEF7FDFCDFF84408018822232D
S315000034E000F0DEFB002400F0DFFB641CE0B22228C3
S315000034F0F9D300F0E0FB28784DF65022FFF73DFAAD
S3150000350028780FF6A811FEF7E4FCDFF81808018802
S31500003510202300F0C5FB002400F0C6FB00F0AAFB48
S31500003520FAD300F0C8FB28784DF65522FFF725FAA6
S3150000353028780FF68411FEF7CCFCDFF8EC0701883B
S31500003540202300F0ADFB002400F0AEFB00F092FB60
S31500003550FAD300F0B0FB28784DF65122FFF70DFAAA
S3150000356028780FF66011FEF7B4FCDFF8C007018873
S315000035705A2300F095FB002400F096FB641CE0B291
S315000035805A28F9D300F097FB28784CF64B62FFF7E0
S31500003590F4F928780FF63C11FEF79BFCDFF890074C
S315000035A00188102300F07CFB002400F07DFB00F076
S315000035B06DFBFAD300F07FFB28784DF64922FFF722
S315000035C0DCF928780FF62011FEF783FCDFF8640794
S315000035D00188012300F064FB9DF8002000F067FBE2
S315000035E000F069FB28784BF23462FFF7C6F92878B9
S315000035F00FF60811FEF76DFCDFF83C07018808237B
S3150000360000F04EFB002400F04FFB00F037FBFAD32E
S3150000361000F051FB28784FF60172FFF7AEF92878D3
S315000036200FF6E401FEF755FC012402237F22002158
S3150000363000F031FB9DF8002000F039FB9DF80120D9
S3150000364000F035FB641EF0D100F035FB28784EF211
S315000036502312FFF792F928780FF6C401FEF739FC1A
S3150000366004237F22012100F016FB00F01DFB00F071
S3150000367009FBFAD300F01FFB28784EF27542FFF7DC
S315000036807CF928780FF6B001FEF723FC11237F2280
S31500003690022100F000FB002400F006FB00F0F6FA21
S315000036A0FAD900F008FB28784EF26322FFF765F995
S315000036B028780FF69801FEF70CFC04237F220321DD
S315000036C000F0E9FA002400F0EFFA00F0DBFAFAD392
S315000036D000F0F1FA28784EF26352FFF74EF9287897
S315000036E00FF67C01FEF7F5FB04237F22042100F090
S315000036F0D2FA002400F0D8FA00F0C4FAFAD300F0A7
S31500003700DAFA28784EF26212FFF737F928780FF6C0
S315000037106401FEF7DEFB012402237F22052100F06F
S31500003720BAFA9DF8002000F0C2FA9DF8012000F0D8
S31500003730BEFA641EF0D100F0BEFA28784EF6793251
S31500003740FFF71BF928780FF64401FEF7C2FB112399
S315000037507F22062100F09FFA00F0A6FA00F096FA02
S31500003760FAD900F0A8FA28784EF66462FFF705F950
S3150000377028780FF62401FEF7ACFB10237F220721E1
S3150000378000F089FA002400F08FFA00F07FFAFAD3ED
S3150000379000F091FA28784EF22412FFF7EEF8287816
S315000037A00FF60401FEF795FB1A237F22082100F08D
S315000037B072FA002400F078FA641CE0B21A28F9D3F1
S315000037C000F079FA28784EF22512FFF7D6F8287815
S315000037D00FF2E871FEF77DFB08237F22092100F036
S315000037E05AFA002400F060FA00F048FAFAD300F022
S315000037F062FA28784EF22612FFF7BFF828780FF201
S31500003800D871FEF766FB0A237F220A2100F043FAED
S31500003810002400F049FA641CE0B20A28F9D300F04B
S315000038204AFA28784EF22712FFF7A7F828780FF2FF
S31500003830BC71FEF74EFB012402237F220B2100F010
S315000038402AFA9DF8002000F032FA9DF8012000F0D7
S315000038502EFA641EF0D100F02EFA28784EF22812C5
S31500003860FFF78BF828780FF2A471FEF732FB1823C6
S315000038707F220C2100F00FFA00F016FA641CE0B269
S315000038801828F9D300F017FA28784EF22912FFF714
S3150000389074F828780FF29071FEF71BFB01237F2244
S315000038A00D2100F0F8F99DF8002000F000FA00F074
S315000038B002FA28784EF21022FFF75FF828780FF206
S315000038C08071FEF706FB00F0F6F928784EF2112219
S315000038D0FFF753F828780FF28471FEF7FAFA00F032
S315000038E0EAF928784EF21222FFF747F828780FF205
S315000038F08C71FEF7EEFA00F0DEF928784EF213220C
S31500003900FFF73BF828780FF29871FEF7E2FA00F01D
S31500003910D2F928784EF21422FFF72FF828780FF202
S31500003920A471FEF7D6FA00F0C6F928784EF21522F1
S31500003930FFF723F828780FF2B471FEF7CAFA00F001
S31500003940BAF928784EF22022FFF717F828780FF2F6
S31500003950BC71FEF7BEFA04237F22142100F09BF906
S31500003960002400F0A1F900F08DF9FAD300F0A3F9D4
S3150000397028784EF22122FFF700F828780FF2B0716E
S31500003980FEF7A7FA00F097F928784EF27422FEF7B0
S31500003990F4FF28780FF2C471FEF79BFA00F08BF95A
S315000039A028784FF60D72FEF7E8FF28780FF2C071FF
S315000039B0FEF78FFA00240B23E2B2172100F06BF911
S315000039C00026F1B200F071F9761CF0B20A28F8D997
S315000039D0641C61B20529EEDD00F06DF928784EF21F
S315000039E05642FEF7CAFF28780FF29871FEF771FA71
S315000039F000F061F928784FF46542FEF7BEFF28789B
S31500003A000FF29071FEF765FA00F055F928784EF23C
S31500003A100352FEF7B2FF28780FF29071FEF759FABB
S31500003A2000240123E2B21A2100F035F99DF80020A6
S31500003A3000F03DF9641C60B20528F2DD00F03BF9A8
S31500003A4028784EF20152FEF798FF28780FF2787127
S31500003A50FEF73FFA10237F221B2100F01CF90024F9
S31500003A6000F022F900F012F9FAD300F024F92878D0
S31500003A704EF20252FEF781FF28780FF25C71FEF7D4
S31500003A8028FA28237F221C2100F005F9002400F0E3
S31500003A900BF9641CE0B22828F9D300F00CF9287859
S31500003AA04EF25822FEF769FF28780FF24071FEF7B2
S31500003AB010FA12237F221D2100F0EDF8002400F0F9
S31500003AC0F3F8641CE0B21128F9D900F0F4F828786C
S31500003AD04EF25922FEF751FF28780FF22071FEF7B9
S31500003AE0F8F900243423E2B21E2100F0D4F80026AF
S31500003AF0F1B200F0DAF8761CF0B23428F8D3641C80
S31500003B0061B20529EEDB00F0D6F828784EF25B228A
S31500003B10FEF733FF28780FF2FC61FEF7DAF900F0C2
S31500003B20CAF828784EF25A22FEF727FF28780FF2B5
S31500003B30FC61FEF7CEF900F0BEF828784EF25C2262
S31500003B40FEF71BFF28780FF2F861FEF7C2F900F0C6
S31500003B50B2F825B0BDE8F083E8E70320D8C4010039
S31500003B60E0C4010064F10100F4C4010066F1010043
S31500003B7068F101006AF101006CF101006EF10100CB
S31500003B8070F101004D46475F435553544F4D5F4515
S31500003B9055495F36340000004D46475F535452493D
S31500003BA04E4700004D46475F424F4152445F4E41EB
S31500003BB04D4500004D46475F4D414E55465F4944D1
S31500003BC0000000004D46475F5048595F434F4E4640
S31500003BD0494700004D46475F4153485F434F4E46B5
S31500003BE0494700004D46475F5A574156455F434F88
S31500003BF0554E5452595F4652455100004D46475F57
S31500003C005A574156455F48575F56455253494F4E9E
S31500003C10000000004D46475F5A574156455F5053D6
S31500003C204555444F5F52414E444F4D5F4E554D42B0
S31500003C30455200004D46475F53455249414C5F4E41
S31500003C40554D4245520000004D46475F53594E546C
S31500003C50485F465245515F4F464653455400000063
S31500003C604D46475F4343415F5448524553484F4C86
S31500003C7044000000641CE0B220287047641CE0B2D7
S31500003C8008287047641CE0B204287047641CE0B240
S31500003C90102870474146684605F022BE0188022377
S31500003CA07F22684605F01CBEE1B21DF80120287887
S31500003CB03946FDF7A1B928784146FDF79DB90000C0
S31500003CC072F1010074F1010076F1010078F1010052
S31500003CD07AF101007CF101007EF1010080F1010022
S31500003CE082F1010084F1010086F1010088F10100F2
S31500003CF08AF101008CF101008EF1010090F10100C2
S31500003D0092F1010094F1010096F1010098F1010091
S31500003D109AF101009CF101009EF10100A0F1010061
S31500003D20A2F10100A4F10100A6F10100A8F1010031
S31500003D30AAF10100ACF10100AEF101004D46475F6A
S31500003D40455A53505F53544F5241474500000000B7
S31500003D504D46475F4354554E450000004D46475F6C
S31500003D60584F5F54554E45004D46475F4C46584F99
S31500003D705F54554E450000004D46475F4C4F434B40
S31500003D80424954535F504C57000000004D46475F70
S31500003D904C4F434B424954535F434C57300000004D
S31500003DA04D46475F4C4F434B424954535F4D4C572A
S31500003DB0000000004D46475F4C4F434B4249545369
S31500003DC05F554C57000000004D46475F4C4F434B34
S31500003DD0424954535F444C57000000004D46475F2C
S31500003DE0424F4F544C4F41445F4145535F4B4559F9
S31500003DF0000000004D46475F43424B455F44415437
S31500003E00410000004D46475F494E5354414C4C41DA
S31500003E1054494F4E5F434F44450000004D46475FAF
S31500003E2053454355524954595F434F4E46494700FF
S31500003E304D46475F5345435552455F424F4F544C9D
S31500003E404F414445525F4B45590000004D46475F80
S31500003E5043424B455F3238334B315F444154410056
S31500003E604D46475F5349474E45445F424F4F544C7A
S31500003E704F414445525F4B45595F58004D46475F99
S31500003E805349474E45445F424F4F544C4F4144457A
S31500003E90525F4B45595F59004D46475F544852455E
S31500003EA041445F4A4F494E5F4B4559004D46475F77
S31500003EB05A575F50524B00004D46475F5A575F5066
S31500003EC0554B00004D46475F5A575F51525F434F6F
S31500003ED0444500004D46475F4E564D335F435259A9
S31500003EE050544F5F4B4559004D46475F5A575F49FF
S31500003EF04E495449414C495A454400004D46475F96
S31500003F004555495F36340000535441434B5F4E5686
S31500003F10444154415F56455253494F4E00000000FC
S31500003F20535441434B5F4150535F4652414D455FA9
S31500003F30434F554E54455200535441434B5F414CF9
S31500003F405445524E4154455F4B45590053544143E5
S31500003F504B5F424F4F545F434F554E5445520000FE
S31500003F60535441434B5F4E4F4E43455F434F554E6F
S31500003F7054455200535441434B5F414E414C5953B3
S31500003F8049535F5245424F4F54000000535441433A
S31500003F904B5F4B4559530000535441434B5F4E4FC3
S31500003FA044455F4441544100535441434B5F54528E
S31500003FB05553545F43454E544552000053544143B4
S31500003FC04B5F4E4554574F524B5F4D414E4147450F
S31500003FD04D454E5400000000535441434B5F504141
S31500003FE052454E545F494E464F00000053544143DC
S31500003FF04B5F504152454E545F4144444954494FEA
S315000040004E414C5F494E464F000000005354414319
S315000040104B5F4D554C54495F5048595F4E574B5F67
S31500004020494E464F00000000535441434B5F4D49F3
S315000040304E5F52454345495645445F5253534900E6
S315000040404D554C54495F4E4554574F524B5F535450
S3150000405041434B5F4B455953000000004D554C54AE
S31500004060495F4E4554574F524B5F535441434B5F44
S315000040704E4F44455F444154410000004D554C5459
S31500004080495F4E4554574F524B5F535441434B5F24
S31500004090414C5445524E4154455F4B455900000032
S315000040A04D554C54495F4E4554574F524B5F5354F0
S315000040B041434B5F54525553545F43454E5445520A
S315000040C0000000004D554C54495F4E4554574F5221
S315000040D04B5F535441434B5F4E4554574F524B5FD2
S315000040E04D414E4147454D454E5400004D554C54AB
S315000040F0495F4E4554574F524B5F535441434B5FB4
S31500004100504152454E545F494E464F004D554C5412
S31500004110495F4E4554574F524B5F535441434B5F93
S315000041204E4F4E43455F434F554E54455200000097
S315000041304D554C54495F4E4554574F524B5F53545F
S3150000414041434B5F504152454E545F4144444954AC
S31500004150494F4E414C5F494E464F00005354414330
S315000041604B5F42494E44494E475F5441424C4500DD
S31500004170535441434B5F4348494C445F5441424C7E
S3150000418045000000535441434B5F4B45595F544132
S31500004190424C4500535441434B5F434552544946B4
S315000041A049434154455F5441424C450053544143B1
S315000041B04B5F4144444954494F4E414C5F43484943
S315000041C04C445F4441544100535441434B5F5A4C65
S315000041D04C5F444154410000535441434B5F5A4C99
S315000041E04C5F53454355524954590000535441437B
S315000041F04B5F47505F4441544100000053544143D4
S315000042004B5F47505F50524F58595F5441424C459F
S3150000421000000000535441434B5F47505F494E43F3
S315000042204F4D494E475F46430000000053544143FB
S315000042304B5F47505F53494E4B5F5441424C4500DC
S31500004240535441434B5F47505F494E434F4D494E90
S31500004250475F46435F494E5F53494E4B000000009F
S3150000426010B505F013FF40F2A174C440E0070BD56A
S31500004270064C207805F02AFF207805F0CFFF20783D
S31500004280BDE8104006F09AB810BD00BFE8E703206D
S315000042905FF02A010AA0FDF751BE000010B501F03B
S315000042A059FD044601F04CFD02462346DFF80C009A
S315000042B007A10078BDE81040FCF79EBEE8E70320A2
S315000042C072657365742D746573742E630000000047
S315000042D052455345543A25702D25700D0A000000AD
S315000042E010B50446002004F07CFD002004F095FD86
S315000042F002F0D0FB012004F0E1FC204606F0A7FD09
S315000043002046BDE8104001F0A2B980B5022100F0B8
S315000043102FF9009806F0ECFE01BD8068DFF8D8148E
S3150000432002680A7008780228A8BF0FF2185305DA47
S31500004330002814BF0FF218530FF21C53DFF8BC14F9
S315000043400FF2F042D1F81013FFE70FF2DC40FDF751
S315000043501DBB0000F8B504F00EFCDFF8A4440FF214
S315000043608C5204EB8000C368DFF89004D0F8501339
S315000043700FF25C50FDF70AFBDFF88804006806F0D0
S31500004380FBFE0528054614D8DFE800F003100E09E9
S315000043900C060FF210520EE00FF2FC420BE00FF289
S315000043A0EC4208E079A206E079A204E00FF2D442DA
S315000043B001E00FF2FC420FF210510FF204500FF21F
S315000043C0F847FDF7E3FA0026F0B254F8201005F09E
S315000043D001023846FDF7DAFA761C6D08F0B20228BB
S315000043E0F2D9BDE8F2408FE038B50446DFF80C2478
S315000043F0A0680568D2F860130FF2FC40FDF7C6FA14
S31500004400EDB215B1012D07D00CE00FF2F440FDF727
S31500004410BDFA04F0D7FA05E00FF2F840FDF7B6FA58
S3150000442004F0A7FB0FF2FC40FDF7B0FA2046BDE80A
S3150000443032408FE7F8B507460D4684B0284603F0AC
S31500004440FDFD0446284604F010F806460FF25052C9
S315000044503CB92B4607F111010FF22C50FDF796FAE5
S3150000446010E00FF270500FF264510290009105F0C7
S315000044701F00019003942B4607F111010FF22850FB
S31500004480FDF784FAAE420FF2D04405D032460FF261
S315000044904C512046FDF77AFA284603F0AEFF10F19C
S315000044A0010F0FF288430FF28C4102D10FF28C42BA
S315000044B002E018B90FF28C4218460BE0DFF84823E9
S315000044C0DFF84413B0FBF2F201FB120129B90FF237
S315000044D090412046FDF75AFA13E0DFF830231378AF
S315000044E04FF47A74B0FBF4F2214601FB1201002965
S315000044F00EBF0FF2744102460FF27C411846FCF7DC
S315000045007BFD05B0BDE8F04091A0FDF73FBA10B5C0
S31500004510044603F034FF01462046BDE8104089E713
S3150000452038B5054604F027FB0400DFF8D002D0F8C2
S3150000453030130FF2B04018BF0124FDF727FA04F03C
S3150000454018FBA8680068C0B203F0DCFD02460FF253
S315000045502C310FF2C440FDF719FA0CB104F032FA0F
S3150000456003F00DFF01462846BDE8344062E701210D
S31500004570684603F082BC10B5044604F008FD04F159
S315000045801101BDE8104003468FA245E154780000B2
S31500004590527800002DE9F84F84B007460C461546C0
S315000045A01E4604F0E8FA010018BF01218DF8031039
S315000045B004F008FB002D8DF8020016D1012502201B
S315000045C004F004FB642003F072FA03F0D8FE8DF8C1
S315000045D000000397029664B99DF80060012006F07A
S315000045E01F0400FA04F4002109E0E8D56D4200201A
S315000045F0E6E7E00E4601F6B224F078440121019187
S3150000460015E0039800F1110133464A460FF2404087
S31500004610FDF7BCF904E0FDF7B9F94DA0FDF7B6F9D1
S315000046209DF8010001218140641A761CF6B2002C27
S3150000463039D006F01F008DF8010024FA00F2D007E9
S31500004640F3D503F09CFE86420FF2803904D0304643
S3150000465003F058FD0028D4D14FF07F0A6FF07F0891
S315000046600027AB46BBF1000F32DD6948006810B980
S31500004670684881680868644A01464969007EB2FB59
S31500004680F1F110FB01F0C004000C03F010FA04F085
S3150000469099FBC7198045B8BF80465045B8BF8246CA
S315000046A0ABF1010BDEE79DF80000864218BF03F070
S315000046B029FD9DF8020004F089FA9DF8030020B157
S315000046C005B0BDE8F04F04F07DB905B0BDE8F08F48
S315000046D09DF8400097FBF5F758B1504603F0F8FEF9
S315000046E0824678B203F0F4FE0746404603F0F0FE39
S315000046F08046039800F111013DA0FDF747F90198A6
S3150000470028B1324649460FF2B010FDF73FF902983C
S315000047100FF2183920B1014652464846FDF736F9E0
S315000047200E9820B101463AB24846FDF72FF90F9888
S3150000473020B1014642464846FDF728F99DF840005B
S31500004740002814BF0FF2EC200FF2FC2063E70000F4
S315000047507D0D0A00E0B50021029101910091012230
S315000047600FF20C3308E0E0B501210022029101921C
S31500004770009220A301220021FFF70CFF07BD0000D5
S315000047803EB58368847B1A680FF2F4250021022C5B
S31500004790A8BF59680023029300950FF2EC240FF28C
S315000047A0D8230194FFF7F6FE37BD80B504F085FCEB
S315000047B0034612480FF2E822D0F8B0130FF2D020C9
S315000047C0BDE80050FDF7E2B84343410010B50B4A7F
S315000047D0D2F8C01304460FF2D820FDF7D7F8A06828
S315000047E0016848B204F02CFC2046BDE81040DCE726
S315000047F07B264E0045440000F2EB032078BE010004
S3150000480020E80320D0EC032040420F00E8E7032015
S31500004810D4EC0320CCD1010081A0FDF7B7B88168A4
S315000048200968C9B206E600007B264E202674737D11
S315000048300D0A00005045522054657374204D6F6474
S3150000484065000000656E61626C65642D6E657700BB
S31500004850656E61626C65640064697361626C65644F
S315000048600000000061736C65657000006177616B24
S3150000487065000000656E6572677900007374617487
S315000048807573000049646C6500000000527841634E
S315000048907469766500000000547841637469766532
S315000048A000000000496E61637469766500000000CF
S315000048B0556E6B6E6F776E002026746800000000E0
S315000048C020267473000000005266537461746500FC
S315000048D07B264E20526164696F20706F7765722067
S315000048E0737461746520267473000000706F7765B9
S315000048F072207374617465007B264E2000000000F0
S31500004900536C656570696E6720726164696F2E2EDF
S315000049102E00000057616B696E6720726164696FD3
S315000049202E2E2E00646F6E657D0D0A002026747093
S31500004930000000006672657100000000696C6C651D
S3150000494067616C0050657252616D526164696F43B4
S315000049506F6E66696700000020267475000000000F
S31500004960667265714D487A00207B667265714B48A8
S315000049707A3A256C7D000000207B66726571487A64
S315000049803A256C7D000000007B264E20526164694A
S315000049906F206368616E6E656C2026746800000087
S315000049A06368616E6E656C007B264E205261646999
S315000049B06F206368616E6E656C20267468202826F9
S315000049C0746420696E202674642900006368616E31
S315000049D000000000706167650000000050746943C4
S315000049E068616E007B264E2053657474696E67207D
S315000049F06368616E6E656C20616E642063616C69CC
S31500004A0062726174696E6720286173206E656564E1
S31500004A106564292E2E2E00002674687D0D0A00007E
S31500004A207B264E202674647D0D0A000020267464C1
S31500004A3000000000205B3830322E31352E342075D0
S31500004A406E6974735D000000205B64426D5D00005A
S31500004A507B264E20267468205B696E76616C6964DD
S31500004A60206368616E6E656C5D7D0D0A0000000056
S31500004A7052535349000000006D696E52535349006A
S31500004A8061766752535349006D617852535349001A
S31500004A907B264E202674642064426D7D0D0A00003C
S31500004AA0434341205468726573686F6C640000006C
S31500004AB07B264E7D0D0A000080B5002004F0D2FC56
S31500004AC0BDE8014006F038BA10B5DFF83443DFF828
S31500004AD03433607D18710122E0694FF47A7106F073
S31500004AE0CAFF01001CBF0121217510BDDFF810139C
S31500004AF0C861887DDFF80C134871E5E7F8B594B016
S31500004B0004460D4612A806F0E5FE064607F09BF899
S31500004B10074606F0C7FE0346BDF84E000FF24C11DD
S31500004B20BDF848200B900A91039605920197BDF8AF
S31500004B304C000FF240110FF24416DFF8CC22099018
S31500004B4008910096BDF84A000FF2381107900691B9
S31500004B500FF238100FF23C110490029129460FF221
S31500004B603C10FCF713FF002C02D007F05EF804009F
S31500004B707AD0A06907F05CF8074606F09FFE064665
S31500004B8006F098FE0FF25C111197109104F1500592
S31500004B90E2680FF258130F920E9361680FF25412E7
S31500004BA00D910C92A3680FF254110B930A9122698E
S31500004BB00FF250130992089361690FF25012079190
S31500004BC006928DA123680FF24C170FF25012019036
S31500004BD005938AA0049703960291009000262B7DE8
S31500004BE00FF240110FF248100FF278175B1EFCF718
S31500004BF0CDFEF0B204EB8000761CC1693846FCF7A6
S31500004C00C5FEF0B20C28F4DD68680FF260110E9054
S31500004C100D912A890FF260100C920B9069890FF2A0
S31500004C2064120A910992A8890FF2601108900791FF
S31500004C30EA7B0FF2601006920590A97B0FF25C12D8
S31500004C400491039228780FF25C13029001930A20D4
S31500004C5069780FF258130091AA780FF2581142435F
S31500004C600FF25810FCF792FE15B0F0BD7375737015
S31500004C7000000000637269740000000061636365F0
S31500004C806C0000006C696D690000000074616C6B5B
S31500004C900000000075736564000000007B264E204E
S31500004CA02674752026743268202674642F313030BD
S31500004CB025250D0A20202674642F31303025252025
S31500004CC02674642F3130302525202674642F313028
S31500004CD0302525202674642F31303025257D0D0A98
S31500004CE0000000006275636B657400007375737075
S31500004CF04279000063726974427900006C696D69DB
S31500004D004279000074616C6B4279000075736564CA
S31500004D10427900006D617842790000006368616E37
S31500004D200000000064635374617473560000000051
S31500004D307B266E20267468202674752674752026B8
S31500004D40746C2026746C0D0A202026746C20267440
S31500004D506C2026746C2026746C0D0A2674753A2015
S31500004D60000000007B256C7D000000006D696E4F21
S31500004D7066665573000000006C6274436361557388
S31500004D80000000006D617853657100006D61785018
S31500004D906B740000706B744F7668000062797465FE
S31500004DA05573000073757370446300006372697411
S31500004DB04463000074616C6B446300000D0A50612B
S31500004DC072616D733A2026747520267475202674D8
S31500004DD07520267475202674750D0A202020202043
S31500004DE020202026747520267475202674752026AA
S31500004DF0746C7D0D0A00000061630000737400008E
S31500004E003CE80320B4F10320784F000010B50446B7
S31500004E10FCF79CFB82B2DFF8F403036C2146BDE885
S31500004E20104003F10C00FCF725BB000070B101280F
S31500004E3018BF022815D0032818BF042814D0062846
S31500004E4018BF082812D0102812D013E0DFF8BC03D0
S31500004E50016CC87A002814BF0FF21C000FF27C0008
S31500004E6009E00FF28C0006E008A004E00CA002E0C6
S31500004E7010A000E014A0C9E7232323454E444F4663
S31500004E805445535423232323230000002323234C78
S31500004E90494D49544544232323232323230000005B
S31500004EA0232323435249544943414C232323232399
S31500004EB02300000023232353555350454E444544B5
S31500004EC0232323232300000023232D554E4558502A
S31500004ED045435445442D2323230000002323235315
S31500004EE0544152544F465445535423232300000043
S31500004EF02323234E4F524D414C2323232323232385
S31500004F002300000038786946FCF7C6BF2DE9F0415A
S31500004F10DFF8F8420546E07988B00E46174698460F
S31500004F2010B14046FFF782FFA07900B302F035FECC
S31500004F3011A30293B3A1B4A201950691049203466C
S31500004F400FF23C050FF240020FF2440112A0CDF819
S31500004F501C80059703960095FCF718FDA07902289A
S31500004F6005DBCCBF0120002013A1FFF7C7FD0620FB
S31500004F7008B0BDE8F08100006D6F646500000000B8
S31500004F806368616E6E656C0074696D650000000093
S31500004F9044634362000000000D0A7B266E202674DF
S31500004FA06C20267468202674752026747520267455
S31500004FB0757D0D0A000000004463436253746174FA
S31500004FC0730000002DE9F04706468846924606F033
S31500004FD05AFCDFF83872F8700409387818BF641E76
S31500004FE028B1386B07EB8000416A491C41628C2E60
S31500004FF0BE700FF24419DFF8885243D003F0CDFD9E
S3150000500066B1402E22D0882E18BF892E4DD08C2E08
S3150000501038D08D2E34D08F2E0CD03BE03869396ACB
S31500005020401C386164183C62287D00283DD040F25F
S315000050303A5137E0B869396A401CB86164183C6275
S31500005040287D002831D040F23F512BE0F869396ABB
S31500005050401CF861641838783C6260B106F036FE90
S31500005060032806D1786B401C7863386B80F001000A
S31500005070386306F02DFE287DB8B140F24B5111E0A1
S3150000508006F0BAFD7869401C7861287D68B140F267
S31500005090525107E032460FF2B8010120FCF723FF18
S315000050A040F263514846FCF749FF402E87F801A0BD
S315000050B0C7F83C8019D13879012811DD411E38899D
S315000050C03971401C3881C9B22A2006F00DFEE86904
S315000050D000224FF47A7106F0CEFC064628B929E084
S315000050E000212A2006F000FE03E0002E18BF8F2EB6
S315000050F01ED0787901281BDD401E79897871491CFC
S315000051007981DFF88805017801290ADDE969DFF888
S315000051108005814205D10278082A02DDC178491C42
S31500005120C170688B02F0C3FCBDE8F047FFF7CCBC4A
S3150000513001202875BDE8F0877068792D636F6D6D65
S315000051406F6E2D74782D746573742E6300000000E5
S31500005150656D626572526164696F5472616E736DDA
S315000051606974436F6D706C65746549737243616CE5
S315000051706C6261636B207374617475733A20307866
S315000051802578000080B503F0FEF800F017F8D0F897
S31500005190A01407E080B503F009F900F00FF8D0F885
S315000051A0C01400BF02A0BDE80050FCF7EFBB000032
S315000051B07B264E2026746464426D7D004FEA000310
S315000051C0DFF8D40400A2704761637475616C506F98
S315000051D0776572003EB50446A1680D6868B203F0B3
S315000051E0E1F801906BB200F033F8D0F8B0140FF28A
S315000051F05000FCF7CBFB2CA0FCF7C8FB2046BDE813
S315000052003E40BFE76E6577006F6C6400B4F1032023
S315000052103EB50446A1680D6828B203F0CCF8CDF877
S3150000522004002BB200F014F8D0F8D01404A0FCF758
S31500005230ADFB1DA0FCF7AAFB2046BDE83E40A9E752
S315000052407B264E2026746464426D202674647D009D
S315000052500FF27841DFF840040FF278420091704770
S315000052602DE9E040DFF8341406A20B8B009201937F
S3150000527000F111010FF280420FF2684048E1000090
S315000052803CE803207472616E736D69742064656C0A
S315000052906179202868657829000000008168DFF8B8
S315000052A0FC330A681A83DBE70D0A00002DE9F14F8B
S315000052B084B081680A880192511E8941C90F029102
S315000052C04FF0010A03F057FC00B101208DF80100F0
S315000052D04FF0000B7E4DDFF82C626869DFF8C07373
S315000052E0ADF80200D8460198012811D000F005F962
S315000052F03878029921B10FF22041FBF77DFE03E0D9
S31500005300019A77A1FBF778FE00F0F1F800F0EAF8D1
S31500005310DFF87C43DFF88C93802249462046FCF771
S3150000532065FBDFF8680301780129C4BF20780828E7
S3150000533019DD99F8011001F0200141F0C1016170F9
S31500005340D0461821A1702118029818B101F805BCA1
S31500005350002004E0019801F8050C0198001221785C
S31500005360611801F8040CD94663E000208DF80000AE
S3150000537069463878FCF790FD00F0C6F85FD09DF8D6
S3150000538000103878642906D100F0A4F8049800F1DA
S315000053901101002007E0442907D100F09BF804988A
S315000053A000F111010120FFF7A9FB09F10100DFF867
S315000053B0F8121FFA80F9087820B102F06DFD08B1E5
S315000053C006F098FC308B02F072FBDFF8C01208780A
S315000053D0A0B1B8F1000F18BF84F803A02078032805
S315000053E00CDD201800F803AC4FEA2A20217861185A
S315000053F001F8020C0AF101001FFA80FA002030754C
S315000054000121A9702046FFF771FB8346B8B902F067
S31500005410BFFB8346307D50B9FFF74EFB02F0B8FB69
S31500005420A0EB0B0080B240F2D1718842F2D395F81E
S3150000543002B00298002898D10198814595DB38780A
S315000054400FF2F8214A46FBF7D7FD707B40B1AA8AD6
S31500005450BDF802000FF20031121A3878FBF7CCFDC6
S3150000546038780FF218315A46FBF7C6FDDFF83C02D2
S315000054700FF2243102883878FBF7BEFD38780FF238
S315000054803831FBF7B9FD69783878002914BF0FF277
S3150000549044310FF24831FBF7AFFD03F0BEFD28B1F2
S315000054A0AA6B38780FF23C31FBF7A6FDEA6B387829
S315000054B00FF25C31FBF7A0FD642002F0F8FA9DF8CC
S315000054C0010008B103F07EFA05B0BDE8F08F0000D8
S315000054D0B4F103204A460FF26421FBF78DBD0000AC
S315000054E02575000038780FF2D811FBF785BD328B91
S315000054F038780FF23021FBF77FBD38780FF2102194
S31500005500FBF77ABD3CE803209DF80000652870474C
S31500005510FCF73CFA07BD38B500F035F800F02CF87A
S3150000552018BF0124FBF768FD03F023FB03F0EEFC34
S3150000553002E02878FFF7E7FCFFF7E6FFF9D103F072
S31500005540F6FC15E038B500F01EF800F015F818BFA7
S315000055500124FBF751FD03F00CFB03F0F7FC02E01E
S315000055602878FFF7D0FCFFF7CFFFF9D103F00EFD47
S315000055700CB103F027FA31BDDFF824510FF24011C8
S3150000558004002878704700208DF8000003F0F3BA75
S315000055902DE9F041DFF808410FF2A42120780FF23F
S315000055A0B0250FF2A428DFF8FC70FBF725FD0026D6
S315000055B015E0BA5D20784146FBF71EFD711006EB3B
S315000055C091729210B6EB820007D139788E4204DAD6
S315000055D0207832462946FBF70FFD761CF6B238785E
S315000055E0401C8642E5DBBDE8F0818068DFF8B42028
S315000055F00168117070472DE9F84304460027A0683A
S31500005600DFF89C5006680FF25428DFF89890761C55
S31500005610F6B2802E06DAA06800EB8701486809F822
S31500005620060005E028787B1C721E4146FBF7E4FC69
S315000056307F1C042FEBDBBDE8F1831A4814210170AF
S3150000564001214A1E4254491C8029FAD3704710B5DD
S315000056501048174B174C184A0021016141618161BE
